:020000040000FA
:100000000830002081150000891500008B150000C4
:100010008D1500008F1500009115000000000000F4
:10002000000000000000000000000000510300007C
:100030009515000000000000090400006D04000098
:100040009B1500009D1500009F150000A1150000E4
:10005000A3150000510D0000A7150000A915000010
:10006000AB150000AD150000AF150000B115000084
:10007000B3150000B5150000B7150000B915000054
:10008000BB150000BD150000BF150000C115000024
:10009000C3150000C5150000C7150000C9150000F4
:1000A000CB150000CD150000CF150000D1150000C4
:1000B000D3150000D5150000D7150000D915000094
:1000C000DB150000DD150000DF150000E115000064
:1000D000E3150000E5150000E7150000E915000034
:1000E000EB150000ED150000EF150000F115000004
:1000F000F3150000F5150000F7150000F9150000D4
:10010000FB150000FD150000FF15000001160000A2
:10011000031600000516000007160000091600006F
:100120000B1600000D1600000F160000111600003F
:10013000131600001516000017160000191600000F
:100140001B1600001D1600001F16000039160000C7
:1001500000000000000000003B1600003D160000FB
:100160003F1600004116000000000000431600008A
:100170004516000047160000491600004B16000007
:100180004D1600004F1600005116000053160000D7
:100190005516000057160000591600005B160000A7
:1001A0005D1600005F160000611600006316000077
:1001B0006516000067160000691600006B16000047
:1001C0006D1600006F160000711600007316000017
:1001D0007516000077160000791600007B160000E7
:1001E0007D1600007F1600008116000083160000B7
:1001F0008516000087160000891600008B16000087
:1002000000F002F800F04FF80AA090E8000C8244D9
:100210008344AAF10107DA4501D100F044F8AFF2B6
:10022000090EBAE80F0013F0010F18BFFB1A43F0D4
:1002300001031847B06B0000D06B0000103A24BFD8
:1002400078C878C1FAD8520724BF30C830C144BF3B
:1002500004680C607047000000230024002500267D
:10026000103A28BF78C1FBD8520728BF30C148BF19
:100270000B607047662906F0EE80642901F00A835E
:10028000632901F09086002070471FB506F0D9F869
:1002900001F095FE04000020002105F0AFFAE060B7
:1002A0001FBD10B510BD01F08FFF1146FFF7EDFF28
:1002B0000FB400F00BF80FBC00F0E2F801F0ADFB5A
:1002C00003B4FFF7EEFF03BC01F078FF04B003F0C6
:1002D000CDFF0448002104F041F803F0D9FF01F0FC
:1002E0009CFB00003866000080F309887047EFF33C
:1002F00009807047684680F3098804480078C00781
:1003000014BF0220032080F314887047F8650000B2
:10031000DFF818C0EFF305831B0618BF6047EFF343
:100320001483DB0708BF604700DF7047CD4400003F
:10033000DFF818C0EFF305831B0618BF6047EFF323
:100340001483DB0708BF604700DF704701470000E8
:10035000EFF30980816911F8021CE1BB90E80F10EE
:1003600010B5E047BDE81040EFF3098C8CE80700BA
:10037000214B93E80600914208BF704741B91EF037
:10038000100F16D11D49086820F00100086010E028
:100390001EF0100F06BF2CED108A0120002081F8FE
:1003A00025002CE9F00FC1F828C00CB404F060FD62
:1003B0000CBC1A60D2F828C0BCE8F00F92F82500F7
:1003C00000280EBF6FF0020E6FF0120EBCEC108A08
:1003D0008CF30988704710B5094A1268914209D810
:1003E000084C54F8214090E80F10A047EFF3098C17
:1003F0008CE80F0010BD00003800002034EF00E052
:10040000282A0000282A000010B504F0F5FBBDE8FA
:100410001040154B93E80600914208BF7047EFF378
:10042000098C1EF0100F06BF2CED108A0120002051
:1004300081F825002CE9F00FC1F828C00CB404F0B5
:1004400017FD0CBC1A60D2F828C0BCE8F00F92F877
:10045000250000280EBF6FF0020E6FF0120EBCECEC
:10046000108A8CF3098870473800002010B504F01A
:10047000C7FDCCE710B504F015F804F0C1FDC6E7E0
:1004800010B503F0F3FE00F031FA00F08BFB00F042
:100490002AF800F05BFA03F0FBFE00F001FB0020FD
:1004A00010BD000010B5029C0471816000EE901A2E
:1004B000F8EEE00A20EE800ABDEEC00A80ED030AE5
:1004C000026242628362002180F8381080F839109D
:1004D00080F83A10012280F83B200161C161C162BD
:1004E0008161416110BD38B500217C4803F036FFC1
:1004F0007B4C206079480021103003F02FFFE0632F
:1005000076480021203003F029FFA06773480021BE
:10051000303003F023FFC4F8B400704800214030AD
:1005200003F01CFFC4F8F0006C480021503003F0C9
:1005300015FFC4F82C01412008230A229FED690A07
:10054000009069492046FFF7ADFF4220009002234A
:100550000022B7EE080A654904F13C00FFF7A2FF4C
:1005600043206FF01D04052322469FED611A009081
:100570005B48B0EE410A43F650617830FFF792FFD6
:1005800044200090564801230022B7EE080A41F6A5
:100590001F41B430FFF786FF4520009050480623E6
:1005A0002246B0EE410A5349F030FFF77BFF462068
:1005B0000A236FF063029FED500A00904F495048A4
:1005C000FFF770FF38BD4FF0FF31012003F0BABED6
:1005D00010B5044603F092FEE169401AE1688142D9
:1005E00001DA012100E00021A26802EBD272521070
:1005F000824201DA012200E000222369C01A20634E
:10060000012384F83B3059B1206A10F1640F04D003
:1006100084F83930401E20620BE084F8383008E05E
:100620003AB1206A10F1640F03D0401C206284F8B4
:100630003930344801210068BDE8104003F076BE2F
:10064000274C3434FFF7BFFF204600F065F82448FC
:10065000FFF7BEFFF6E7224D05F170043C35FFF7CA
:10066000B2FF204600F070F82846FFF7B1FFF6E72A
:100670001B4D05F1AC047835FFF7A5FF204600F0CF
:100680008BF82846FFF7A4FFF6E7154D05F1E804BF
:10069000B435FFF798FF204600F096F82846FFF79C
:1006A00097FFF6E70E4D05F59274F035FFF78BFFD7
:1006B000204600F0A4F82846FFF78AFFF6E7084D29
:1006C00005F5B07405F59675FFF77DFF204600F03F
:1006D000BBF82846FFF77CFFF6E700004C650000FA
:1006E000500000209A99D93FD54A0100CC1F07003D
:1006F0006666A63F2D330100CDCC8C3F93AF2E0014
:100700007C01002000000020012101E04143401E47
:100710000128FBDC0846704770B505462DED028BBD
:1007200001249FED608B2602204605F0CFFA53ECA2
:10073000182B05F01FFB05F083F82860641CB442F9
:10074000F2DDBDEC028B70BD2DE9F04105462DEDCB
:10075000048B01249FED558B9FED569B204605F0A1
:10076000B5FA0F46064653EC182B05F003FB05F0CF
:1007700067F828602046FFF7C7FF47EC116BB0EE23
:10078000490AF0EE690A02F083FD641C102CE5DDD5
:10079000BDEC048BBDE8F08170B505462DED028BF4
:1007A00001249FED468B204605F090FA53EC182B60
:1007B00005F034F905F044F82860601C90FBF4F073
:1007C000641C482CEFDDBCE770B505462DED028BAF
:1007D00003249FED3C8B0526204605F077FA53EC69
:1007E000182B05F01BF905F02BF828602046FFF7C1
:1007F0008BFFB6FBF0F0A41C092CEDDDA1E770B572
:1008000005462DED068B01249FED308B9FED299B36
:100810009FED30AB204605F059FA53EC182B05F04C
:10082000FDF805F00DF82860B0EE491AF0EE691AEF
:10083000B0EE4A0AF0EE6A0A02F02AFD641C642C4B
:10084000E8DDBDEC068B70BD2DE9F04105462DEDD0
:10085000068B01249FED218B9FED169B9FED21AB15
:10086000204605F033FA0F46064653EC182B05F0E8
:1008700081FA04F0E5FF286047EC116BB0EE490AFD
:10088000F0EE690A02F004FD47EC106BB0EE4A1A74
:10089000F0EE6A1A02F0FCFC641C802CE0DDBDEC7A
:1008A000068B77E7000000000000703F00000000AA
:1008B0000000B03F00000000000000400000000009
:1008C0000000524000000000000022400000000034
:1008D000000059404AD8124DFB2109400000000099
:1008E0000000803F000000000000084010B500F04C
:1008F00037FD1349134802F09DF81349114802F0DF
:1009000095F8104C61680A6A486800219047606158
:1009100061680A6A48686FF07F419047206110BDA6
:100920001CB5012301EBC101CDE90013C2EBC203E9
:1009300001464FF0FF32034802F0D5FA1CBD00001B
:10094000C4650000B8010020A46B00002DE9F0414F
:1009500003F026FD894D2860032103F02DFD0022C0
:100960000121874803F046FD68600021864C854ED2
:10097000002204F11803C1EB011706EB870744F8C6
:10098000217043F82120491C0629F4DBAA60BDE848
:10099000F041052103F044BD78488168491D81601C
:1009A0000121006803F0C2BCF0B50022764D6FF063
:1009B0003104183555F82210C9B10E698B689B1B9C
:1009C000CE69861B3344CE68F31A4B61002B01DAE3
:1009D00000234B61D1E902639E1B4B6964277B4373
:1009E00093FBF6F3323B4B62A34200DA4C62521C9B
:1009F000062ADFDBF0BD002251F822301BB1521C69
:100A0000062AF9DB704741F822007047F0B5002153
:100A10005D4C1834481C12E054F8202072B154F890
:100A200021303BB1D2E908563544D3E908673E444A
:100A3000B54203DC44F8203044F82120401C06284D
:100A4000EADB491C0629E5DBF0BD2DE9F04107464C
:100A50000025DFF8348158F82540E4B1A06A4FF44E
:100A60007A7191FBF0F0454AE16A9268511A884226
:100A700011DA002684F83B60E7612661E66266626F
:100A8000414920461831FFF7B6FF48F8256001219B
:100A9000206803F04BFC6D1C062DDCDBBDE8F0810B
:100AA0000EB5394D00261835771E2EE094610120D1
:100AB00082F83A000021106803F07EFC39460120DC
:100AC00003F040FC8DE8070003F018FC044628689A
:100AD000C0B182690169A21A11440161286880F8D5
:100AE0003A6000686FF0020103F066FC286890F835
:100AF0003B10012906D121498968C1622249FFF7CB
:100B00007AFF2E602046FFF74FFF03F0F7FB044605
:100B10002046FFF79AFFFFF779FF2A68002ACDD019
:100B2000C4E700B5B3B0194901A800F04FFE01A811
:100B300000F07CFF014601A800F042F933B000BD8F
:100B4000F0B5B3B007460E4615460C4C606803F08E
:100B500073FC33463A460EA101A8009500F036FE1C
:100B600001A800F063FF014601A800F029F9052162
:100B7000606803F055FC33B0F0BD000000000020B9
:100B8000AC65000050000020FC010020946D0000C6
:100B900009092563093A742C2025642C2025640A50
:100BA0000D00000000215E4803F0D8BB2DED028B44
:100BB00086B05C4E00279FED5C8AAEE0C5EB051069
:100BC00006EB800459A1227901A800F0FFFD03F093
:100BD000FFFB0022294601A8FFF7A2FE03F0F8FB65
:100BE00053A101A8226A00F0F1FD03F0F1FB0222FB
:100BF000294601A8FFF794FE03F0EAFB4DA101A8E6
:100C0000626900F0E3FD03F0E3FB0622294601A838
:100C1000FFF786FE03F0DCFB94F8380010B14FF0CC
:100C20004D0807E094F8390010B14FF0530801E087
:100C30004FF04E0803F0CCFB84F8397042463BA1DC
:100C400001A800F0C3FD03F0C3FB0E22294601A852
:100C5000FFF766FE03F0BCFB94F83B0030B136A111
:100C600001A800F0B3FD03F0B3FB0FE094F83A00E5
:100C700030B132A101A800F0A9FD03F0A9FB05E005
:100C80002FA101A800F0A2FD03F0A2FB102229462B
:100C900001A8FFF745FE03F09BFB227923A101A8E1
:100CA00000F094FD03F094FB0022E91D01A8FFF77A
:100CB00037FE03F08DFB94ED0D0A20EE080A10EECE
:100CC000100A05F04DFB41EC100B1EA153EC102B4C
:100CD00001A800F07BFD03F07BFB0222E91D01A8C7
:100CE000FFF71EFE03F074FB18A101A8226B00F0B1
:100CF0006DFD03F06DFB0922E91D01A8FFF710FE51
:100D000003F066FB94F8380018B14FF0FF3003F0A1
:100D1000A1FA6D1C062DFFF651AF00254EE700002D
:100D2000B4650000500000200000C84225630000A8
:100D3000253464002538640041770000526E0000BD
:100D400052650000252E32662525000025376400F7
:100D5000214800682149087070472148016841F026
:100D6000010101601E481038016841F00101016075
:100D70001C49032008601C4A112111601A491039CE
:100D80000860154810218163184A136843F0200356
:100D90001360026B22F00102026340F20D324262E4
:100DA00081626021C162124A0021116040F201316A
:100DB0000163704708498A699206FCD4086070474D
:100DC00030B504460D46002303E0E05CFFF7F2FF78
:100DD0005B1CAB42F9DB30BD00C000400C000020C2
:100DE00018E60F40208405402C85054000E100E016
:100DF000C8CF004002880B8803800A8070470268D1
:100E00000B6803600A60704738B54FF08074F84D86
:100E1000A2690146284612689047A069816B28465E
:100E200088470028F9D1A0696946426A2846904758
:100E30000098C0B238BD70B505464FF080740022EE
:100E4000206A08210368EB489847206AEA4E00228E
:100E500003680421304698472846FFF7D5FF206AEB
:100E60000422114603683046BDE8704018472DE95A
:100E7000F04104460D464FF080760822306A114654
:100E80000368DC489847306ADB4F0022036804217E
:100E90003846984703E02078FFF7B6FF641C6D1EC4
:100EA000681CF8D1306A0422114603683846BDE850
:100EB000F041184713B5FFF7BEFF012101A8FFF766
:100EC000D6FF1CBDF8B504460D4616461F46CB4856
:100ED000A11CAA1C0078002809D0B31C07F1020C41
:100EE00001280BD0022811D003281DD115E08CB2A7
:100EF000F61CB6B295B2FF1CBFB215E0E41CA4B25A
:100F00009EB2ED1CADB21FFA8CF70DE08CB2761CD0
:100F1000B6B295B27F1CBFB206E0641CA4B29EB20A
:100F20006D1CADB21FFA8CF72A20FFF784FF200A50
:100F30008DF800008DF8014002216846FFF797FF09
:100F4000280A8DF800008DF8015002216846FFF74D
:100F50008EFF2B20FFF76FFF300A8DF800008DF811
:100F6000016002216846FFF782FF380A8DF8000011
:100F70008DF8017002216846FFF779FF2C20FFF7FA
:100F80005AFFF8BD2DE9F047089CE6B2C4F30727E5
:100F90000C1A641CA3EB020909F10109FFF792FF87
:100FA0004FF080750822286A1146036891489847D7
:100FB000286ADFF8448200220368042140469847EB
:100FC00004FB09F444B13846FFF71EFF3046FFF733
:100FD0001BFF641E002CF6D1286A04221146036808
:100FE0004046BDE8F047184738B50C4604990091D3
:100FF000C118134689B22246FFF7C4FF38BD38B581
:10100000049C13449BB20094FFF7BCFF38BD38B575
:101010000C46A11800938BB2811889B22246FFF7C3
:10102000B1FF38BD084691B280B20022EFE72DE94A
:10103000F05F1E46DDE90B850D9F0A9C93B20819EF
:101040001FFA80FC88B292B26146FFF73BFF4FF077
:10105000807A0822DAF8200011460368654898472C
:10106000DAF82000DFF890B1002203680421584626
:10107000984728F08040012821D0042822D0082851
:1010800070D010287ED17AE015F8019B12E0C6F1ED
:10109000070029FA00F000F0010037F8200000F006
:1010A000FF08C0F30720FFF7AFFE4046FFF7ACFE96
:1010B000761C641E082E01DA002CE8D10026002CD4
:1010C000E2D15FE016F0010033D001285AD117E0D9
:1010D0002878000900EB4000385800F4780100F44B
:1010E0007C42090A41EA5211C0F3C4000143CEB266
:1010F000080AFFF789FE3046FFF786FE641EC4B17A
:1011000015F8010B00F00F0000EB4000385800F418
:10111000780100F47C42090A41EA5211C0F3C4008C
:101120000143CEB2080AFFF76FFE3046FFF76CFEB0
:10113000641E002CCCD125E015F8010B00EB40001B
:10114000385800F4780100F47C42090A41EA52114F
:10115000C0F3C4000143CEB2080AFFF755FE304683
:10116000FFF752FE641E601CE6D10BE035F8020B5F
:10117000C6B2000AFFF748FE3046FFF745FE641E80
:10118000601CF3D1DAF820000422114603685846A7
:10119000BDE8F05F18473FB581B01C46089DDDE90A
:1011A0000201884203DD03A902A8FFF728FE039885
:1011B000A2B281B20298009580B20023FFF71FFF10
:1011C00005B030BD3FB581B00C46089DDDE9030197
:1011D000884203DD04A903A8FFF711FE04980095D7
:1011E00082B20398002381B2A0B2FFF7FDFEE7E7C9
:1011F00000A00040002006400040064010000020F3
:1012000010B586B014460B880593888804904A88E8
:101210000392C9880291834203D904A905A8FFF764
:10122000E9FDBDF80C00BDF80810884203D902A9F9
:1012300003A8FFF7DFFD0094BDF80830BDF80C20CF
:10124000BDF81010BDF81400FFF79CFE06B010BDED
:1012500001F4780001F47C42000A40EA5210C1F324
:10126000C40108437047704738B504460020009019
:101270008C4904F0110008703620FFF7DCFD34B112
:10128000012C07D0022C08D0032C0BD108E0C82079
:10129000009007E0A820009004E00820009001E002
:1012A0006820009001216846FFF7E1FD38BD38B5A0
:1012B00005467C4804780020FFF7D6FF7F230022F4
:1012C000194610460095FFF75DFE2046BDE8384000
:1012D000CAE70020EBE7FEB5002002907249734890
:1012E00001F012FE6F4F78604FF08074606C81697E
:1012F0006F488847606C81696E488847206A816EB4
:101300006D488847206A816E6C488847206A816EE4
:101310006B488847206A816E6A488847206A0F2197
:10132000C26C69489047A069684D0521026C284647
:10133000904708206649CDE90010A06900231A46AD
:10134000466828467968B047A0698168284688477A
:10135000A06902A9826A284690470028F8D1FEBDFC
:1013600070B5FFF7B8FF4FF08074606C8169514829
:10137000001D8847606C81694E48C01D8847606CBD
:1013800081694C4809308847206A524D0821C26B58
:1013900028469047206A0821C26B4F489047206A30
:1013A0000421C26B4D489047206A08221146036809
:1013B00028469847606CD0F888104FF47A708847B8
:1013C000206A00220821036828469847606CD0F8FC
:1013D00088104FF4FA708847206A08221146036883
:1013E00028469847606C4FF49665D0F888102846D8
:1013F00088470120FFF71FFD606CD0F8881040F28D
:10140000DC5088471120FFF716FD606CD0F888107B
:101410004FF4FA60884704212620FFF74BFDB120E6
:10142000FFF709FD02212EA0FFF721FDC020FFF7E5
:1014300002FD02212BA0FFF71AFD05213A20FFF73C
:1014400039FD606CD0F88810642088470821362068
:10145000FFF730FD2A20FFF7EEFC042122A0FFF762
:1014600006FD2B20FFF7E7FC04211FA0FFF7FFFC80
:101470001320FFF7E0FC606CD0F8881064208847E8
:101480002920FFF7D8FC606CD0F8881028468847E0
:101490002C20FFF7D0FC0020FFF7E6FEBDE87040EF
:1014A00017E7000010000020000E2707800600F15B
:1014B000021C00F0030800F00F0C03000F080300EB
:1014C0000F0403000F0003000070004000A0004064
:1014D0000087930300700240002006400040064051
:1014E0000A1400000A00000000000079000000005B
:1014F000FEE7FEE7704770471A4810B5007848B11C
:1015000003F038FF30B1184900EB400001EB401008
:10151000603810BD154810BD154A10B51168034656
:10152000082900D3FEE7134800EB0110491C18609E
:10153000116003F0B1FA012010BD0A4909780029B1
:1015400005D000684FF6FF71DFF82CC000DF704750
:1015500004490978002903D00068DFF820C000DFC3
:101560007047000031000020A0280020A42D00209A
:1015700024000020C02C0020814B0000A94A00005C
:101580004548804745480047FEE7FEE7FEE7FEE79F
:10159000FEE7FEE7FEE7FEE7FEE7FEE7FEE7FEE723
:1015A000FEE7FEE7FEE7FEE7FEE7FEE7FEE7FEE713
:1015B000FEE7FEE7FEE7FEE7FEE7FEE7FEE7FEE703
:1015C000FEE7FEE7FEE7FEE7FEE7FEE7FEE7FEE7F3
:1015D000FEE7FEE7FEE7FEE7FEE7FEE7FEE7FEE7E3
:1015E000FEE7FEE7FEE7FEE7FEE7FEE7FEE7FEE7D3
:1015F000FEE7FEE7FEE7FEE7FEE7FEE7FEE7FEE7C3
:10160000FEE7FEE7FEE7FEE7FEE7FEE7FEE7FEE7B2
:10161000FEE7FEE7FEE7FEE7FEE7FEE7FEE7FEE7A2
:10162000FEE7FEE7FEE7FEE7FEE7FEE7FEE7FEE792
:10163000FEE7FEE7FEE7FEE7FEE7FEE7FEE7FEE782
:10164000FEE7FEE7FEE7FEE7FEE7FEE7FEE7FEE772
:10165000FEE7FEE7FEE7FEE7FEE7FEE7FEE7FEE762
:10166000FEE7FEE7FEE7FEE7FEE7FEE7FEE7FEE752
:10167000FEE7FEE7FEE7FEE7FEE7FEE7FEE7FEE742
:10168000FEE7FEE7FEE7FEE7FEE7FEE70448054962
:10169000034A054B70470000B51600000102000028
:1016A000082E002008300020082E00200749064898
:1016B000086070470648016841F470010160034901
:1016C0000148086070470000000E2707280000202E
:1016D00088ED00E000487047A42D002053EA020C7A
:1016E00000F069802DE9F04B4FF00006002B1FBF82
:1016F000B3FA83F503FA05F424FA05F65E4012BF47
:101700001643B2FA82F502FA05F4C5F120051EBFB0
:1017100022FA05FC44EA0C04203556EA044C4FEA50
:10172000144418BF641C4FF000084FF000099042A9
:1017300071EB030C39D3002919BFB1FA81F701FA13
:1017400007F6B0FA80F700FA07F6C7F120071EBFC8
:1017500020FA07FC46EA0C062037B6FBF4FCA7EBA0
:101760000507103F07F01F0BCBF120060CFA0BFB0F
:101770002CFA06F644BFB3460026202FA4BF5E46CF
:101780004FF0000B5BEA060C08BF4FF0010B19EBA2
:101790000B09ABFB027C48EB0608C01B06FB02CC26
:1017A0000BFB03CC71EB0C01C1E70B460246414633
:1017B0004846BDE8F08B13B54FF000004FF0000134
:1017C000AFF30080BDE81C40704700000FB41CB5AB
:1017D000074B06AA7B4469460090059800F0C1FBC0
:1017E0000020694600F0D0FB1CBC5DF814FB000033
:1017F000B107000070B5044685690068C10601D5CF
:10180000302600E02026C00707D070BDD4E90121B2
:1018100030469047206A401C20626D1EF6D570BD90
:1018200070B5044685690078C00707D170BDD4E95A
:10183000012120209047206A401C20626D1EF6D5B1
:1018400070BD70B50C460546012A05D02878800683
:1018500000D5EA69002302E0012305E05B1C934206
:1018600002D2E05C0028F9D1A869E618C01AA86184
:10187000286A184428622846FFF7BCFF04E0D5E92F
:10188000012114F8010B9047B442F8D32846FFF722
:10189000C7FF70BD2DE9F041064600241068752988
:1018A000314616A510D0AFF30080002802DA40427E
:1018B00013A507E031688A0701D512A502E04907A0
:1018C00004D511A5012401E0AFF3008000210A2214
:1018D00006F1240709E0B0FBF2FCB0FBF2F302FBD7
:1018E0001C00303078541846491C0028F3D1234698
:1018F0002A463046BDE8F04100F0C5B800000000BF
:101900002D0000002B000000200000002DE9F04712
:101910004FF0000A89460446C0F820A02046E1683E
:101920008847002876D0252806D0D4E901219047A1
:10193000206A401C2062F1E7E168204600258847C4
:10194000C4F81CA006460027C4F818A02A2E09D007
:10195000304602F0B8FB38B304EB8708303EC8F8D5
:10196000186019E059F8041B204604EB87029161C6
:10197000E1688847012F064618D1E069002820DA7F
:1019800025F020051DE0D8F8180000EB800006EBDC
:1019900040003038C8F818002046E16888470646FD
:1019A00002F091FB0028EED1012F0AD02E2E08D193
:1019B0002046E16888477F1C0646022F45F0200537
:1019C000C4DBA069002803DA404245F00105A061AC
:1019D000E80701D025F01005B6B1A6F1410019289D
:1019E00002D8203645F400654A4631462046256037
:1019F0004D46FEF73FFC58B1012806D0ED1D25F0FD
:101A0000070000F1080989E704E005F1040985E70A
:101A100030468AE7206ABDE8F08710B50446AFF388
:101A200000802046BDE81040FEF74ABC10B5431CBC
:101A300002E010F8011B71B18107FAD14FF00132B9
:101A400002C88C1A8C4314EAC211F9D0C01A0A06D3
:101A500003D0C01E10BDC01A10BD0A0401D0801EE4
:101A600010BD0902FCD0401E10BD70477047704782
:101A700010B500F0A9FA006810BD10B5044600F0DA
:101A8000A3FA046010BD2DE9F0470D469946924631
:101A9000044600F124080168880604D5E06921F0B5
:101AA0001001216000E00120A84201DD471B00E099
:101AB0000027A1697A1902EB0900081AA0612078B1
:101AC000C00602D42046FFF795FE002608E0D4E9C0
:101AD00001211AF806009047206A401C761C2062FB
:101AE0004E45F4DB2078C0060AD52046FFF782FE7B
:101AF00006E0D4E9012130209047206A401C206292
:101B0000381EA7F10107F4DC07E0D4E9012118F839
:101B100005009047206A401C2062281EA5F101059F
:101B2000F3DC2046FFF77CFE2078000602D5022079
:101B3000BDE8F0870120FBE770472DE9FF4F0C4619
:101B40001E464FF0FF378BB0D2E90001DDF8608010
:101B50000A908A46C1F30A5505B93D460021084658
:101B60004FF00000BAF1000F00F4400005DA00EB7E
:101B700080004FF4400101EA50004FEA9059B9F15A
:101B8000010F00DDB9460A9850EA4A000ED044F62B
:101B90001050A5F2FF3545432F14B8F1000F1ED0A9
:101BA0007542291E1EDDC9F100021CE0B8F1010FCB
:101BB0004FF0000001D0302103E0F24305E0215452
:101BC000401CB042FBDB30460022002121540B991F
:101BD000C1F80880C1E900200FB0BDE8F08FBD1B3F
:101BE0006D1CDEE74A4600DA694206A800F074FA86
:101BF00006AB93E8070003AB83E8070050460A9959
:101C000000F049FB8DE80700A0F500501F38009058
:101C10000398002D0ADD42F21F014A4608440023C2
:101C200003A90390684600F0B2FD09E0A0F500505A
:101C30004A461F38002303A90390684600F0BCFD04
:101C40008DE807000004000C03D04FF0FF3041087E
:101C500000E01046B8F1000F03D0002200921546B4
:101C60001EE0751E05D400F0B1F9303262556D1ECC
:101C7000F9D5B3460122084302D000227F1C04E0BC
:101C80002078302801D100227F1E002A099784D0B5
:101C90001DE0112D07DA00F099F9303262556D1C04
:101CA00050EA0102F5D1084302D00098C8B10EE015
:101CB0000021681E05E0235C625C63542254401ED0
:101CC000491C8142F7DBAB46A81B401E099000204F
:101CD00004F80B000B98099AC0F80880C0E9002BA3
:101CE0007AE711264FF0000857E72DE9F04F8846B4
:101CF0000446D21D22F0070191B0D1E90001CDE9DF
:101D00000A0101F0ADFA02460B98C00F01D02D2058
:101D100007E02068810701D52B2002E0202101EA9D
:101D2000C000032A099001D0072A05DB034641467B
:101D3000204600F091F90BE12078800601D5E0699A
:101D400000E00620B8F1650F814606D0B8F1660FB5
:101D500018D0B8F1670F70D131E00020B9F1110F40
:101D6000009001DB112301E009F101030AAA01A996
:101D70000CA8FFF7E2FEDDE90C70002609F1010571
:101D8000834647E001204B4600904FF000470AAAE7
:101D900001A90CA8FFF7D1FEDDE90DB00C995D4655
:101DA000002610B909F101000D18B9EB050003D4A4
:101DB000C0F1FF3609F10105A5EB09002BE0B9F1EF
:101DC000010F01DA4FF001090020B9F1110F009065
:101DD000484601DD112300E003460AAA01A90CA828
:101DE000FFF7ABFEDDE90C704D46002683462078F8
:101DF00000070AD4AB4500DA5D4601A8012D04DDD9
:101E0000411911F8011C302907D04F4502DA17F1AA
:101E1000040F04DA012082460FE06D1EEEE7002F6A
:101E200002DCED1B3E4403E0781CA84200DD7D1C73
:101E3000B81B00F1010A4FF000472078000703D4D7
:101E4000AA4501DB4FF0FF3A0021B7F1004F0DF139
:101E500043088DF8431024D002202B23002F01DAF1
:101E60007F422D230A21021EA0F1010000DC5FB198
:101E700097FBF1FC97FBF1F201FB1C7C17460CF180
:101E8000300C08F801CDEEE7A8F1010003702188BD
:101E9000090501D5452100E06521A0F1010800F800
:101EA000011C09980FA9A1EB0807FF1D00B1012033
:101EB000411901EBEA70A1693844081A401EA0617B
:101EC0002078C00602D42046FFF794FC099828B178
:101ED000D4E901219047206A401C20622078C00686
:101EE00022D52046FFF786FC1EE0002E04DBB3451A
:101EF00002DD01A8805D00E03020D4E90121904797
:101F0000206A401C2062761CAAF101005FEA000AE8
:101F10000AD100F054F8C0680168405CD4E901219E
:101F20009047206A401C2062281EA5F10105DCDCD8
:101F300007E0D4E9012118F8010B9047206A401C02
:101F40002062381EA7F10107F3DC2046FFF768FC8A
:101F5000032011B041E6000001694A1C02610878C3
:101F6000704700B58FB0CDE90131002105910549D9
:101F70007944CDE9031011466846FFF7C7FC0FB05E
:101F800000BD0000E5FFFFFF0A6802F8010B0A60D0
:101F9000704710B5436913B1AFF3008001E0FFF75C
:101FA00050FC012010BD127800F124010A700022BB
:101FB0004A700122EDE711684FF0FF32E9E710B5F2
:101FC000FFF788FB203010BDFFF796BA30B5B0F1AF
:101FD0000A024FEA900E71F100034EEA817EB0EBE7
:101FE0000E0061EB91014FEA101E4EEA017E10EBEC
:101FF0000E0041EB11114FEA102E4EEA016E10EB6C
:102000000E0041EB11214FEA104E4EEA014E10EB4B
:102010000E0041EB1141401841F100014FEAD000A0
:1020200040EA41704FEAD10110EB80054FEA81048C
:1020300044EA907444EB01046D1944EB0404521B10
:10204000A3414FF0000348BF0A3200D530BD401C09
:1020500041F1000130BD00002DE9F0411F4604466A
:1020600003260168072A01F4006004DB08B116A505
:1020700005E016A503E008B115A500E015A521F0BF
:1020800010002060A069C01EA0610FB1401EA061B9
:102090002046FFF7AFFB4FB1D4E901213846904706
:1020A000206A401C2062C01C206206E0206AFAE719
:1020B000D4E9012115F8010B9047761EF8D220468D
:1020C000FFF7AEFBBDE8F0814E414E006E616E0041
:1020D000494E4600696E66002DE9F0478146164676
:1020E0008AB0354878440DC88DE80D0032487844F0
:1020F000801C03AC0DC884E80D0041F69B300844F9
:10210000372190FBF1F290FBF1F5A5F1800501FB81
:1021100012041B3C02D56442012000E00020DFF8DD
:1021200098A080460027FA44AAF1BE0A0EE0E00714
:102130000AD03246684607EB470101230AEB8101CA
:1021400000F03AFB8DE8070064107F1C002CEED1F4
:10215000194F7F44AE3F19E0E80715D007EB041094
:102160000DF1180A90E80E008AE80E00C068F042EF
:1021700001D1981908903246012306A903A800F05E
:102180001BFB03AB83E807006D10641C002DE3D13B
:102190004FF0010332466946B8F1000F03A802D0A0
:1021A00000F0F5FA01E000F007FBC9E90001C9F809
:1021B00008200AB0BDE8F087944C000001491820BF
:1021C000ABBEFEE7260002007546FFF783FAAE4677
:1021D00005006946534620F00700854618B020B533
:1021E000FFF754FABDE820404FF000064FF000071B
:1021F0004FF000084FF0000B21F00701AC46ACE8AF
:10220000C009ACE8C009ACE8C009ACE8C0098D461B
:10221000704700004FF0013C50F8042B51F8043B8C
:102220009A4221D1A2EB0C03934313EACC1317D1AA
:1022300050F8042B51F8043B9A4215D1A2EB0C0341
:10224000934313EACC130BD150F8042B51F8043B01
:102250009A4209D1A2EB0C03934313EACC13DBD0CF
:102260004FF00000704700BFD01A01BAB1FA81F1F7
:1022700001F0180122FA01F0CB40C1F12001DBB2DC
:10228000C0B2C01A2CFA01F3D11A914311EAC3115A
:10229000E6D1704770475FEA400C08BF91F0000F2D
:1022A0004FEA8C234FEAC12243EA51514FEA1C50B6
:1022B00018BF00F5F0404FEA300018BF41F0004170
:1022C0005FEA6C5C00F02980BCF1FF3F08BF40F082
:1022D00080407047130C06BF12044FF0100C4FF0F3
:1022E000000C130E04BF12020CF1080C130F04BFF4
:1022F00012010CF1040C930F04BF92000CF1020CBC
:10230000D30F04BF52000CF1010C11464FF0000234
:10231000A0F11F00A0EB0C00704711F0004F08BFA8
:10232000704731F000413FF4D5AF0B0C06BF0904F4
:102330004FF0100C4FF0000C0B0E04BF09020CF113
:10234000080C0B0F04BF09010CF1040C8B0F04BF28
:1023500089000CF1020CCB0F04BF49000CF1010CF9
:10236000CCF12003A0EB0C0022FA03F302FA0CF2EA
:1023700041EA030100F10100704720F07F4C80EA40
:10238000030023F07F47ACEB070303F57C5300F019
:10239000004003F1FF032DE980494FEA154B09B4D2
:1023A0004FEA144325EA0B4E24EA03480FF20426B1
:1023B00006EB132749083E785FEA320203FB066703
:1023C000C7F5000707FB06F64FEA54374FEAD64633
:1023D00006F1020607FB066CCCF1005C4FEA1C47D5
:1023E0002CEA074C07FB06F40CFB06F504EB15463C
:1023F0004FEA961634BF00204FF000404FEAD13725
:1024000006FB07FC4FEA1C4C0CFB0BF7D21B03FB33
:102410000CF761EB07010CFB0EF7B0EB074072EB1A
:1024200017420CFB08F734BFA2EB0742B2EB07429E
:1024300061EB17414FEA0C444FEA910706FB07FC9A
:102440004FEA1C4C0CFB0BF7B0EBC74072EB57325A
:1024500003FB0CF734BFA2EBC742B2EBC74261EB00
:1024600057310CFB0EF7B0EBC70072EB57720CFB49
:1024700008F734BFA2EBC702B2EBC70261EB57719A
:10248000039F4FEA816141EA921104EBCC044FEAC9
:10249000D1374FEA826206FB07FC42EA90124FEA0C
:1024A00080604FEA1C4C0CFB0BF7D21B03FB0CF7B4
:1024B00061EB07010CFB0EF7B0EB074072EB174224
:1024C0000CFB08F734BFA2EB0742B2EB074261EB0B
:1024D00017414FEA8C554FEA910704EB9C2406FB09
:1024E00007FC4FEA1C4C0CFB0BF7B0EBC74072EB40
:1024F000573203FB0CF734BFA2EBC742B2EBC74223
:1025000061EB57310CFB0EF7B0EBC70072EB577263
:102510000CFB08F734BFA2EBC702B2EBC70261EBBA
:10252000577115EB4C254FEA816141EA92114FEA50
:1025300082624FEAD13742EA901206FB07FC44F16F
:1025400000044FEA80604FEA1C4C0CFB0BF7D21BD7
:1025500003FB0CF761EB07010CFB0EF7B0EB074038
:1025600072EB17420CFB08F734BFA2EB0742B2EB49
:10257000074261EB174115EB1C154FEA813141EA27
:1025800092414FEA823242EA90424FEA80304FEA6B
:102590000C7644F1000448EA03434EEA0B484FF03E
:1025A000000EB2EB080C71EB030724BF62463946FC
:1025B0004EEB0E0E4FF0000B0018524149414BEB11
:1025C0000B0BB2EB080C71EB03077BF1000B24BF84
:1025D000624639464EEB0E0E4FF0000B001852418A
:1025E00049414BEB0B0BB2EB080C71EB03077BF192
:1025F000000B24BF624639464EEB0E0E51EA02072D
:1026000018BF46F0010616EB0E7655F1000254F1A4
:10261000000103D5BDE88901BDE80088BDE8890156
:10262000BDE80048B619524141EB0101A3F1010395
:10263000704780807F7E7D7C7B7A7978777676752F
:102640007473727171706F6E6E6D6C6C6B6A6A69A7
:102650006868676666656464636362616160605F41
:102660005F5E5E5D5D5C5C5B5B5A5A5959585857BA
:102670005756565555555454535352525251515022
:1026800050504F4F4F4E4E4D4D4D4C4C4C4B4B4B75
:102690004A4A4A49494948484847474747464646BB
:1026A00045454544444444434343434242424241F6
:1026B0004141002B9C4630D477002BD01CB54FEA0B
:1026C000370703B44FF010004FF01001BAF1000FBC
:1026D00006D0BCF1000FDCBF40F0080040F008015C
:1026E0004FF000000FBCBDE810400BF1010BBBF137
:1026F000010F08BF5FEA170722BF12F1010211F1B3
:1027000001014FF0004143F1000300F0004043EAB3
:1027100000007047F9D35708D0E746EA064613F1A0
:10272000400F4FEA16461FDD13F1200FDFBF16439F
:102730000A46002120335B42BED0C3F1200746EA9F
:10274000064602FA07F74FEA164646EA0706C3F1BD
:10275000200722FA03F201FA07F721FA03F14FF0FA
:10276000000342EA0702A7E746EA020646EA0646EF
:102770004FEA164646EA0106BCBF46EA0646360C54
:102780004FF000034FF000024FF0000194E72DE9F5
:10279000804C9A46934670B491E8380007C831EAF5
:1027A000400C48BF34EA430C03D5FFF7E6FDFFF7C2
:1027B00080FFF0BCBDE8008C2DE9804C9A46934622
:1027C00070B491E8380007C810F0804F08BF13F0CC
:1027D000804F03D100F005F8FFF76BFFF0BCBDE8B8
:1027E000008C20F07F4780EA030023F07F4C07EB4A
:1027F0000C03A3F57C5300F00040A3F1FE0392F01C
:10280000000F00F0B38095F0000F00F077802DE905
:1028100001494FEA11404FEA144621EA004800FB03
:1028200006FC24EA064708FB06F607FB08F800FB4F
:1028300007F718EB06484CEB164C4FEA124B18EB17
:1028400007484FEA15464CEB174022EA0B4E0BFBAC
:1028500006FC25EA06470EFB06F607FB0EFE0BFB01
:1028600007F71EEB064E4CEB164C4FF000061EEB26
:10287000074E4CEB174B18EB0B0840F1000018EB20
:102880000E0B58EB000840F100008F1A4FF00001CA
:102890003CBFC943661B14BFB5EB040C00213CBF11
:1028A000C943F61B4FEA17444EEA8E0E27EA044549
:1028B0004FEA1C4704FB07622CEA074C05FB07F7AD
:1028C0000CFB05F604FB0CFC16EB074642EB17422B
:1028D00016EB0C4642EB1C421BEB060658EB0202C1
:1028E000414146EA9E0601D5BDE80189B61952412B
:1028F00041EB0101A3F10103BDE801894FEA144551
:102900004FEA114724EA054621EA074C05FB07F484
:1029100006FB07F70CFB06F105FB0CFC11EB07416E
:1029200044EB17444FEA124711EB0C4144EB1C44B3
:1029300022EA074C05FB07F206FB07F70CFB06F63D
:1029400005FB0CFC16EB074642EB174216EB0C4658
:1029500042EB1C456A1854F1000148BF7047B61994
:10296000524141EB0101A3F10103704795F0000FC3
:1029700037D04FEA11424FEA144721EA024624EACF
:10298000074C02FB07F106FB07F70CFB06F402FB02
:102990000CFC14EB074441EB17414FEA154714EBCD
:1029A0000C4441EB1C4125EA074C02FB07F506FBF2
:1029B00007F70CFB06F602FB0CFC16EB074645EB93
:1029C000174516EB0C4645EB1C42121951F100015C
:1029D00048BF7047B619524141EB0101A3F1010311
:1029E00070474FEA14454FEA114724EA054621EAA9
:1029F000074C05FB07F106FB07F70CFB06F24FF04F
:102A0000000605FB0CFC12EB074241EB174112EBF1
:102A10000C4251EB1C4148BF7047921841EB010139
:102A2000A3F101037047000000000000816100F085
:102A3000E1BB00002C22C0E900210022028142817A
:102A40000B895B1E83814989491EC18102610F493F
:102A500042618261096861B10B68C3614B680362BE
:102A60000B8983848B7A80F82630C97A80F8281005
:102A700009E00749C161074901628284022180F8A7
:102A8000261080F8282080F8272070472C0000208E
:102A9000992A00009C6800002DE9F04F89B0044697
:102AA000DDE9128980691D46164690F800C00F4680
:102AB00003A904AA05AB0DF11C0A1CF0200F08D0D5
:102AC000CDF800A0D0E901A0D0F800C05046E04702
:102AD0000AE08DF80CC041788DF8101081788DF8DF
:102AE0001410C0788DF81C00B4F90E004045BCBF2E
:102AF00009B0BDE8F08F9DF81400B4F90A10404405
:102B00008842BCBF09B0BDE8F08F002E19BF4FF05E
:102B1000040A4FF0010B09B0BDE8F08F310006AA9E
:102B200008BF00200DD0206A002804BFCDF818B0DF
:102B3000387806D094F827300AEBC303C3583846D8
:102B4000984700281CBFB4F90C10A942DCBF09B09B
:102B5000BDE8F08F02AAA3690146184600F028F8E4
:102B6000010010D102AA2E21A06900F021F8010075
:102B700009D102AA2021A06900F01AF8010008BFBB
:102B80009DF810000CD09DF80C00434600F00100A9
:102B9000CDE900092A46204600F05DF89DF80800BE
:102BA000054406980744361AB8D109B0BDE8F08F3D
:102BB000F0B40378202B2CD013F0400F4FF0000618
:102BC0002DD0C788002300F1080C002F0ED903EB8D
:102BD00043045CF824508D4205D80CEB84046468EF
:102BE0002C448C4202D85B1CBB42F0D39F422FD0B6
:102BF00003EB43030CEB83045CF82330A468C91A8D
:102C0000204450F8211019B3084441781170F0BCE9
:102C100070470346D3E901035B68F0BC184713F023
:102C2000800F1DBFD0E9024C03794079D0F8C4C0B1
:102C300002BF041D20237E20994228BF884207D36B
:102C4000C81A34F81000604441781170F0BC704725
:102C50003046F0BC70472DE9FF4F83B08A460446EA
:102C6000B0F90C1005988142BCBF07B0BDE8F08FE9
:102C70009AF801100844B4F908108842BCBF07B0A4
:102C8000BDE8F08F022600259AF80000A846AB4662
:102C90000228DCBF07B0BDE8F08F0698B4F90E102B
:102CA00058448842C4BF07B0BDE8F08F109848B1BF
:102CB0001AF80600002877D04FEA101900F00F0725
:102CC000761C33E09AF800104FF00009B14214DD91
:102CD0001AF8060008F118029040B0FA80F00828AF
:102CE000C8BFC8F1080081448044B8F1080F04D17E
:102CF000761C4FF00008B142EADC0027B14215DD36
:102D00001AF8060008F118029040C043B0FA80F0AB
:102D10000828C8BFC8F1080007448044B8F1080F6C
:102D200004D1761C4FF00008B142E9DCB9F1000F84
:102D300049D00698B4F90E105844814243DBB9F1EA
:102D4000010F77DD9AF801106A1C914272DD05EBE4
:102D500009028A42D4BF4946491B0191B4F90A10BD
:102D600088421BDB1199C9B10599B4F908E02944DF
:102D70007145A8BF8E46019A1144B4F90C204B1E30
:102D80009342D8BF1A466369616800934B68029307
:102D90000346D1F814C071460298E0470198A9EBA8
:102DA0000009054461E0FFE70AEB0600407810F0F7
:102DB000800F19BF00F07F00C7004FEAC00900274D
:102DC00006F10206B2D0002F7DD0069800EB0B036F
:102DD000B4F90E0098427ADB012F52DD9AF8010017
:102DE000691C88424DDDE9198142D4BFB946A0EB88
:102DF0000509B4F90A00834217DB0598B4F90810F5
:102E000028448842A8BF01464844B4F90C20A0F1E8
:102E1000010C9445D8BF6246D4F804C020690090E4
:102E2000DCF80400DCF814C0E047A7EB09074D44C8
:102E300041E0FFE70599B4F9082029449142A1BF78
:102E4000B4F90C208A42B4F90A2090420ADB119AA4
:102E500042B1D4F804C002466369DCF80400DCF82F
:102E60000CC0E0476D1CA9F101099AF80100A842C5
:102E700004BF00250BF1010BB9F1000F7FF459AF2E
:102E8000A1E705984119B4F908008142A1BFB4F93E
:102E90000C008842B4F90A0083420ADBD4F804C06B
:102EA000D4F810901A46DCF80400DCF80CC04B464D
:102EB000E0476D1C7F1E9AF80100A84204BF002560
:102EC0000BF1010B00E002E0002F7FF47EAF9AF8D7
:102ED0000000B0423FF7E1AE07B0BDE8F08F01213E
:102EE00011600078704710B582B0DDE9044CBCF188
:102EF000000F18BF4FF0010CCDE9004CD0F81CC0FA
:102F0000E04702B010BD00002DE9F003AF4D0246CE
:102F10002868AF4B1840A0F18053B3F5A02359D0D7
:102F200002F03809DFF8AC82C2F38414B9F1100F53
:102F300025D0B9F1300F04BF47F230504FF40013E1
:102F40000DD04FF03800904304BF4FF40040C30150
:102F500005D012F0380F1CBF0020034613D09E4F3F
:102F600012F4605F4FF0000618BF00222CD057F813
:102F7000324044457DD307EBC2025268E1E00023B2
:102F800040461524EBE7A4F10900122822D2934809
:102F9000D5F87CC04FF04C7350F824002CF01C0C7A
:102FA000072CA8BF4CF0100CC5F87CC02E6D4FF458
:102FB000002C16F4807FD2D1BCF1010C0AD02E6D0A
:102FC00016F4807FF8D0CAE712F0380F18BFB9F1B5
:102FD000100F04D0BDE8F0034FF000007047C2F3BB
:102FE0000268DFF8FCC14FF0000257F83290E1456B
:102FF00003D307EBC202526803E0521C062AF4D343
:103000003246C5F8C020D5F8B020DFF8D8C102EAB2
:103010000C0242F00042C5F8B020DFF8CCC1A4F1A8
:1030200009024C1E5CF828C0A444BCFBF1FCD5F896
:10303000B0101943C5F8B01008EBC80101EB41040A
:103040006A4902EB420201EBC40101EB82046468AD
:10305000C5F86441D5F864416FF0FF0808EB0C2C0B
:1030600044EA0C0CC5F864C151F82210D5F860216F
:1030700000E061E002F400021143C5F86011D5F8E8
:103080006011D5F86021C1F38921C2F30904D5F894
:103090006421C2F3042202F1010CD5F8642102F08C
:1030A0001F02521CB0FBF2F04A09C2F1000844436F
:1030B000424301EB481104EB5212484302EB9020CB
:1030C000B0FBFCF041080846002257F832C08445A6
:1030D00003D307EBC200466802E0521C062AF4D371
:1030E000C5F8C060D5F8600110F4000F1DBFD5F819
:1030F000B00040F08040C5F8B000D5F8600104BFD2
:1031000040F40000C5F860014FF40040D5F8682194
:1031100012F0010F02D1401E0028F7DC002808BF82
:10312000002148D0D5F8B000184340F0010040F02D
:103130001040C5F8B0003EE0521C062AFFF417AF5D
:103140003246C5F8C020D5F8602122F40002C5F847
:103150006021D5F8B020DFF898C002EA0C0242F0F6
:103160000042C5F8B020002908BF4FF0000C0AD07B
:10317000B0FBF1FCBCF1000F18BFACF1010C0CF17D
:103180000101B0FBF1F10846002257F832408442B9
:1031900003D307EBC200466802E0521C062AF4D3B0
:1031A000C5F8C060D5F8B00043EA8C22104340F067
:1031B0000040C5F8B000D5F8B00020F47000C5F8A4
:1031C000B000BDE8F00308467047000000E00F4083
:1031D0000000FF700024F4006C68000050660000DE
:1031E00040787D0100FC0FE048660000BC660000EE
:1031F000FF0300EF70B504468069002804BF4FF05C
:10320000FF3070BD017811F0400F18BF82880AD1DD
:1032100011F0200F08BF002205D0D0E901208168FD
:1032200010468847024694F826300020002B12D919
:10323000A58C216A4FF0020C31F83060AE4207D104
:103240000CEBC0068E5B964202D184F8270070BD5D
:10325000401C8342F0D8002084F82700401E70BD37
:1032600003B401984100009850EAC12018BF04201F
:103270004A0D18BF40F0010040F2FF72B2EB515FFF
:1032800008BF40F00200012808BF052002B07047C7
:103290002DE9F04D2DED040B2DED0E8B96B0DDE9F3
:1032A0002550279CDDF890A025F0004624F000482A
:1032B000BAF1000F14BF0121002101EB4502FC49C6
:1032C00053184A1093422AD3002814BF0123002325
:1032D00003EB44030B44F7498B4220D358EA000127
:1032E0009FEDF59B76D0DFF8D8B35D4503D1BAF1F9
:1032F000000F05D188E0BAF1000F08BF002100D00F
:10330000012101EB450111F5001F08D8002814BF69
:103310000121002101EB440111F5001F0BD99DEDA6
:10332000261B9DED240B16B0BDEC0E8B04B0BDE842
:10333000F04D00F069BE0027002DBCBFE149884573
:1033400021DAE1498845A8BF02271CDAC3451ADC07
:10335000DE4901EB2851142908DDC1F1340220FABD
:1033600002F101FA02F282420DD108E058B9C1F12E
:10337000140228FA02F101FA02F2424503D101F0E7
:103380000101C1F1020756EA0A0124D1002C22DA18
:10339000002D18BF022F01D0012F0AD00220FEF706
:1033A0006CFB16B0BDEC0E8B04B0BDE8F04D00F028
:1033B00013BE0220FEF761FB00F00EFE51EC100B75
:1033C00002F032FA41EC100B16B0BDEC0E8B04B0DB
:1033D000BDE8F08D18E09FEDBEAB9FEDBF8B0028E0
:1033E00071D1B848804522D105F1804010F5801098
:1033F00008BFBAF1000F07D0B3450ADC002CA8BF04
:103400009DED260BE0DA0DE0B0EE490AF0EE690A18
:10341000DAE7002C06DA9DED260B51EC100B02F0DA
:1034200003FA6FE0AE48784490ED000BCCE7D84546
:103430004DD1002C48DA2EB186423AD1BAF1000FB4
:1034400042D126E0BAF1000F13D00220FEF715FB9F
:1034500000F0F6FD8DED020B9DED240B8DED000BC4
:1034600010EE900A039961F31E0003909DED020B8C
:10347000AAE78DED02AB9DED240B1AEE901A10EE2B
:10348000900A8DED000B61F31E0003909DED020B81
:103490009AE78DED028B9DED240B18EE901A10EE3D
:1034A000900A8DED000B61F31E0003909DED020B61
:1034B0008AE709DA9DED240B51EC190B53EC102B24
:1034C00002F0ACFA1EE020E09DED240B7CE7864282
:1034D0001BDAB4F1804F0DD0A4F10050B0F1FF50D1
:1034E00013D1002D11DB9DED240B51EC100B01F0DD
:1034F00049FF07E09DED240B53EC102B51EC100B12
:1035000000F0C2BC41EC100B5EE79DED240B51ECCA
:10351000100B00F00FFEBAF1000FCDE90E0142D101
:103520009FED710B46B3A6F1E040B0F17F600CD087
:103530005E4538D1002D00DAA7B3022F0CBF012061
:103540004FF0FF3002F0C2FBDCE7002D01DD002C64
:103550000DDA002D01DD002C1FDB002D16DA002C0A
:1035600014DB012F08BF9FED620B3FF42DAFB0EECF
:103570004A0AF0EE6A0A27E7022F18BF002D0CD086
:10358000012F0AD1002DFFF61FAF06E0002DB8BFB6
:10359000002C08DA012F3FF417AFB0EE480AF0EE26
:1035A000680A11E71BE0012000EBE57050EA070113
:1035B00015D0791EB0EE498AF0EE698A084308BF3B
:1035C0009FED4D8B4E480025804570DD4D494E489E
:1035D000884514DDB0420DDB002C19DB2FE0012003
:1035E000FEF74BFA16B0BDEC0E8B04B0BDE8F04D03
:1035F00000F016BDB34502DC002C09DC1FE086425A
:1036000002DA002C1BDA03E05E452BDD002C16DD10
:103610000220FEF732FA00F013FD8DED020B53ECA1
:103620001A2B51EC180B02F0A5FBCDE90001039910
:10363000019861F31E0003909DED020BC4E6022089
:10364000FEF71BFA00F00CFD10EE901A18EE900A2F
:103650008DED020B8DED008B61F31E0003909DED4F
:10366000020BB1E69DED0E0B53EC192B51EC100B38
:1036700002F08CFD9FED260BCDE9080153EC102BD9
:103680009DED080B51EC100B02F074FB9FED221B1B
:1036900053EC112B02F0A2FC9DED081B53EC112BF7
:1036A00002F068FB9FED1E1B53EC112B3CE08CE0FD
:1036B000FFFF1F00FFFF0F00000000000000F03FB1
:1036C0000000F03F0000F07F0000404301FCFFFFDE
:1036D000000000000000F07F00000000000000007B
:1036E000CE38000000000000000000000000008054
:1036F000000000000000F0FF000000000000F0BF2C
:103700000000E0410000F043FFFFEF3F0000000039
:10371000000000000000D03F555555555555D53F88
:10372000000000000000E03F02F058FC9DED080B97
:1037300041EC1A0B53EC102B51EC100B02F01AFB5E
:1037400053EC1A2B02F016FB41EC1A0B9FEDFE0B0B
:1037500053EC102B9DED080B51EC100B02F00AFB03
:1037600041EC1B0B9FEDFA0B51EC1A0B53EC102B99
:1037700002F000FB41EC1A0B9FEDF70B53EC102B02
:103780009DED080B51EC100B02F0F4FA53EC1A2BE0
:1037900002F0FCFC41EC1A0B51EC1B0B53EC1A2B06
:1037A00002F080F80690CDE906519DED060B53EC32
:1037B0001B2B51EC100B02F0E9FC53EC1A2B02F01E
:1037C0000DFC41EC100B00F0A1B90020B6F5801FF4
:1037D0000EDA9FEDE30B53EC102B9DED0E0B51EC2D
:1037E000100B02F0C7FACDE90E016FF034000E465F
:1037F00000EB2650A0F2FF37C6F31300DA4940F081
:103800007F6646F040568842D8BF002408DDD7497D
:103810008142C8BF012403DC0024A6F580167F1C6A
:10382000D348784400EBC4000F9690ED00CB9DED9B
:103830000E0B53EC1C2B51EC100B02F0A7FC9DED72
:103840000E0B41EC1B0B53EC1C2B51EC100B02F03C
:1038500029F841EC100B51EC190B53EC102B02F032
:10386000DDF841EC1D0B51EC1B0B53EC1D2B02F052
:1038700081FA41EC1A0BBF488DED10AB78441095DE
:1038800090ED000B4FF0005040EA660000EB8440E2
:103890008DED080B00F5002009909DED080B53EC11
:1038A0001C2B51EC100B02F071FC9DED0E1B53EC28
:1038B000112B02F093FB41EC100B53EC102B9DED00
:1038C000100B51EC100B02F055FA9DED080B41EC7A
:1038D0001C0B53EC102B9DED100B51EC100B02F058
:1038E00049FA53EC1B2B02F079FB53EC1C2B02F032
:1038F0004DFC53EC1D2B02F03DFA41EC1C0B53EC3C
:103900001A2B51EC1A0B02F035FA41EC1B0B9A48BA
:103910000621B0EE4B0AF0EE6B0A784400F0E0FAB4
:10392000B0EE401AF0EE601AB0EE41DAF0EE61DA75
:1039300053EC1B2B51EC1B0B02F01CFA53EC1D2B10
:1039400002F018FA9DED100B41EC1B0B53EC1A2BF7
:1039500051EC100B01F0A6FF53EC1C2B02F00AFAFD
:1039600053EC1B2B01F09EFF9DED100B41EC1B0B4C
:1039700053EC102B51EC100B02F0FCF941EC1D0B39
:103980009FED7FEB53EC1E2B01F08CFF53EC1B2BB8
:1039900001F088FF0890CDE908519DED080B53EC2C
:1039A0001E2B51EC100B02F0F1FB53EC1D2B02F01F
:1039B000EDFB53EC1B2B02F011FB9DED080B41ECD2
:1039C0001D0B53EC102B9DED100B51EC100B02F066
:1039D000D1F941EC1B0B53EC1A2B51EC1D0B02F0EF
:1039E000C9F99DED080B41EC1A0B53EC102B51EC6F
:1039F0001C0B02F0BFF953EC1A2B01F053FF41EC02
:103A00001A0B51EC1B0B53EC1A2B01F04BFF0C90D3
:103A1000CDE90C519DED0C0B53EC1B2B51EC100B15
:103A200002F0B4FB53EC1A2B02F0D8FA41EC1B0B5A
:103A30009FED550B53EC102B9DED0C0B51EC100B27
:103A400002F098F941EC1A0B9FED510B51EC1B0B56
:103A500053EC102B02F08EF941EC1B0B9FED4E0B3B
:103A600053EC102B9DED0C0B51EC100B02F082F976
:103A700053EC1B2B01F016FF41EC100B4848784427
:103A800000EBC40090ED001B51EC100B53EC112B1C
:103A900001F008FF41EC1B0B384602F017F9CDE9A5
:103AA000080153EC1B2B51EC1A0B01F0FBFE41EC0F
:103AB000100B3C48784400EBC40090ED00CB51EC77
:103AC000100B53EC1C2B01F0EDFE9DED081B53EC8D
:103AD000112B01F0E7FE0690CDE906519DED080B94
:103AE00053EC102B9DED060B51EC100B02F04EFB2E
:103AF00053EC1C2B02F04AFB53EC1A2B02F046FB52
:103B000053EC1B2B02F06AFA41EC100B9DED261BC7
:103B100053EC102B8DED001B00959DED260B51EC09
:103B2000100B02F027F99DED000B41EC1A0B53EC42
:103B3000102B9DED260B51EC100B02F027FB9DED99
:103B4000061B53EC112B2FE0000000604715F73FD8
:103B5000FE822B654715F73F44DF5DF80BAE543E00
:103B600000000000000040438E9803007AB60B006E
:103B70004A34000078340000823300000000000066
:103B80000000000000000840000000E009C7EE3F10
:103B9000FD033ADC09C7EE3FF5015B14E02F3EBEA2
:103BA0000E320000C831000002F0E4F853EC1A2B8A
:103BB00001F078FE9DED060B41EC1A0B53EC102B37
:103BC0009DED000B51EC100B02F0D4F8CDE90C0187
:103BD0009DED0C0B51EC1A0B53EC102B01F062FE17
:103BE000CDE902010C46AA498C422FDB611A084339
:103BF00018D19DED0C0B53EC102B9DED020B51ECED
:103C0000100B02F0C3FA41EC1B0B9FEDA30B51EC20
:103C10001A0B53EC102B01F045FE53EC1B2B02F05A
:103C2000A7F92DD20220FDF728FF00F009FA10EEC7
:103C3000901A18EE900A8DED020B8DED008B61F35A
:103C40001E0003909DED020BFFF7BEBB944A24F0CB
:103C50000041914214D39349214408437FF4EFACCF
:103C60009DED0C0B53EC102B9DED020B51EC100B4A
:103C700002F08CFA53EC1A2B02F07AF97FF6DFACE3
:103C800024F000408849894A002601EB20518242F5
:103C90002BDA481C4FF4801121FA00F02044844AAA
:103CA000C0F30A517A44A1F2FF3192ED000B814A30
:103CB0008DED080BCA4020EA0202C0F3130040F465
:103CC0008010C1F1140120FA01F60992002CB8BF4E
:103CD00076429DED080B53EC102B9DED0C0B51EC37
:103CE000100B02F053FACDE90C019DED0C0B51ECD9
:103CF0001A0B53EC102B01F0D5FD9FED6F0B0890C4
:103D0000CDE9085153EC102B9DED080B51EC100B35
:103D100002F030F841EC1B0B9FED690B53EC102BBC
:103D20009DED080B51EC100B02F024F89DED0C0BEF
:103D300041EC1C0B53EC102B9DED080B51EC100BC0
:103D400002F024FA53EC1A2B02F048F99FED5E1BA7
:103D500053EC112B02F00EF853EC1C2B01F0A2FDDA
:103D600041EC1A0B51EC1B0B53EC1A2B01F09AFD92
:103D7000CDE902019DED020B53EC1B2B51EC100B16
:103D800002F004FA53EC1A2B02F028F99DED020B15
:103D900041EC1A0B53EC102B51EC100B01F0EAFF25
:103DA000CDE908014A489DED080B0521784400F053
:103DB00097F89DED081B51EC100B53EC112B01F003
:103DC000D9FF9DED021B53EC112B02F007F9CDE951
:103DD00006019DED020B53EC1A2B51EC100B01F078
:103DE000C9FF53EC1A2B01F05DFD9FED3B0B41EC3D
:103DF0001A0B53EC102B9DED060B51EC100B02F03F
:103E0000C5F99DED060B41EC1B0B53EC102B9DED02
:103E1000020B51EC100B01F0ADFF53EC1B2B01F02A
:103E2000FDFD53EC1A2B02F0B1F99DED021B53EC92
:103E3000112B02F0ABF953EC192B02F0CFF8CDE9BE
:103E4000020101EB065001150029C8BF039015DCE3
:103E50009DED020B324651EC100B02F030FBFFF7E8
:103E6000FFF9042808BF00F0FBF832469DED020B75
:103E700051EC100B02F023FBCDE902019DED020B8A
:103E800051EC180B53EC102B01F074FFFFF73ABB09
:103E90000000904000000000FE822B654715973C13
:103EA00000CC904000346F3F01FCFFFF0000E03F7A
:103EB00050300000FFFF0F0000000000432EE63FDF
:103EC000396CA80C615C20BEEF39FAFE422EE63F49
:103ED000202F000000000000000000000000004053
:103EE00070B504462DED028B4D1E00EBC500B0EE03
:103EF000408AF0EE608A90ED000B35F0060017D096
:103F000053EC182B51EC100B01F034FF41EC100B6B
:103F10006D1E04EBC50090ED001B51EC100B53EC33
:103F2000112B01F0BFFC41EC100B35F00600E7D17E
:103F3000022D36D0042D1CD0062D1CBFBDEC028BEB
:103F400070BD53EC182B51EC100B01F013FF94EDE6
:103F50000A1B53EC112B01F0A5FC53EC182B01F0BC
:103F600009FF94ED081B53EC112B01F09BFC41EC75
:103F7000100B53EC182B51EC100B01F0FBFE94EDE1
:103F8000061B53EC112B01F08DFC53EC182B01F0A8
:103F9000F1FE94ED040B53EC102B01F083FC41EC8B
:103FA000100B53EC182B51EC100B01F0E3FE94EDC9
:103FB000021B53EC112B01F075FC53EC182B01F094
:103FC000D9FE94ED001B53EC112B01F06BFCBDEC02
:103FD000028B41EC100B70BD9FED070B10B553EC3D
:103FE000102B9FED070B51EC100B01F017FD41EC6E
:103FF000100B10BD000000000000000000000000D9
:10400000000000000000F03F10B553EC112B51EC04
:10401000100B01F047FC41EC100B10BD000000003C
:104020009FED050B10B553EC102B51EC100B01F06C
:10403000F5FC41EC100B10BD00000000000000007A
:104040009FED050B10B553EC102B51EC100B01F04C
:1040500091FE41EC100B10BD00000000000000704C
:104060009FED050B10B553EC102B51EC100B01F02C
:1040700081FE41EC100B10BD00000000000000109C
:1040800010B5002A06DA22F00042D21D22F0070302
:10409000102203E0D21C22F003030C2213B19C185F
:1040A0008C4201D9012010BD024401448360C0E963
:1040B0000021C91AD018884202D810600246F9E7D8
:1040C0000020106010BD30380A2801D2012070474E
:1040D0000020704708480068C0010BD507480068F9
:1040E000C00707D0054880380068002802DA044974
:1040F0000120087070470000FCED00E0800E00E039
:104100004C0000204FF06042D36F002BFCD0036BBB
:10411000D367D36F002BFCD0C07840EA0120A2F80F
:104120007C0070474FF06041CA6F002AFCD081F8D4
:104130007C00704782B0CDE9000121F00040019081
:104140009DED000B02B051EC100B70470EB58022B4
:1041500000B109B110460AE001780129FAD101A99C
:1041600000F046F8042801D0002000E01020DDE92E
:10417000011203B000BD70B50D46040003D012B9A2
:104180002078012801D0802070BD204600F07EFB01
:1041900028B12946204600F056F8002070BD812045
:1041A00070BD70B50C4600F04BFF4FF0004108B1F8
:1041B000220C01D0084670BD058BC178A0B200F07A
:1041C00003F8284670BD00000A460146074810B5AE
:1041D00000EB820050F8040C002805D000F05AFDD6
:1041E000BDE8104000F046BD10BD0000742800205E
:1041F00010B504468089002824D0608904EB800033
:1042000000690860606840B16078022805D100212B
:10421000204600F03FFD00F02DFD04F10C0000BF32
:10422000D0E85F1F491E8AB2C0E8512F0029F7D19C
:104230006089401C80B26081E189884201D1002000
:104240006081042010BD10B500F024FDBDE81040D1
:1042500000F010BDEFF3058109B182207047DFF84F
:1042600008C000DF70470000F3530000EFF3058043
:1042700008B182207047EFF31480C00703D0DFF845
:104280000CC000DF704701F0BDB80000055400000D
:1042900088B0EFF3058010B1822008B07047EFF3CB
:1042A000148010F00301134806D001291BD0022905
:1042B00011D0032919D113E008A981F309880078E6
:1042C000C0070BD05FF0020080F31488BFF34F8F5C
:1042D000BFF36F8F09E00078C00706D10320F3E732
:1042E0000078C00701D0FF20D7E7DFF80CC000DF5F
:1042F000D3E70000F865000075540000EFF3058077
:1043000008B100207047DFF808C000DF70470000E8
:10431000BD540000EFF305820AB1FFF717BFDFF8C5
:1043200008C000DF7047000019550000EFF3058258
:104330000AB1FFF736BFDFF808C000DF70470000A2
:1043400053550000EFF305830BB182207047DFF86F
:1043500008C000DF7047000079550000EFF30582C8
:104360000AB100207047EFF31482D20702D1044A49
:1043700052781AB1DFF80CC000DF704701F026B99F
:1043800030000020CD550000DFF80CC000DFDFF862
:104390000CC000DFFEE70000395600008556000023
:1043A000EFF3058008B100207047DFF808C000DF98
:1043B0007047000039560000EFF305820AB18220F1
:1043C0007047DFF808C000DF704700005556000056
:1043D000EFF3058008B182207047DFF808C000DFE6
:1043E00070470000BD560000DFF804C000DF7047D2
:1043F000C7560000EFF305830BB100207047EFF3C1
:104400001483DB0702D1044B5B781BB1DFF80CC0CF
:1044100000DF704701F064B930000020E156000071
:10442000EFF305820AB182207047DFF808C000DF91
:104430007047000019570000EFF3058109B1822091
:104440007047DFF808C000DF704700007D570000AC
:10445000094C4FF0FF3529462068FFF75BFF024605
:104460000846102AF7D1FFF7BFFF0028F3D0024615
:1044700008469047EFE70000200000200748016849
:104480004FF0E02041610021816107210161044872
:10449000016841F07F41016040177047F4650000FA
:1044A00020ED00E07047000002480068C0F3806023
:1044B0007047000004ED00E04FF0E0208069024901
:1044C0000968081A70470000F465000050E8001FF2
:1044D00031B10B6840E80032002AF7D10846704736
:1044E000BFF32F8FFAE710B568B161B10B3121F03E
:1044F0000302016844680B1A1B1B934205D208464D
:1045000009680029F5D1002010BD210007D021182D
:104510000368C1E90032016001F1080010BD42608A
:10452000083010BD70B50D46002812D04FF6FF714F
:10453000084C884204D222680146104600F0D8FB9D
:1045400020684570044800F005F9BDE8704000F0AF
:10455000A1BC70BD38000020742D002070B5194D2D
:10456000E86800282CD0A88A401EA882002621E0F6
:10457000A06838B161684160606810B1A16881606D
:104580006660A6600F482146183800F0D5FBA08A67
:10459000A8826078042804D10B49E08A098808447D
:1045A000A08201206070E068E860E06808B1056101
:1045B000E6602661A88A002802D1EC68002CD7D1D9
:1045C00070BD00008C2D00204800002070B5040054
:1045D0000FD00D4DA17801262868827891420CD920
:1045E00000F0C6FB286846702046BDE8704000F029
:1045F00051BC064800F0AEF8F7E766702146BDE80A
:104600007040024800F098BB38000020742D002054
:104610000321FFF787BF000010B50446008B084355
:1046200020836278618B062A18D0052A19D10842A6
:1046300017D001EA0002628388432083204600F0FD
:10464000D1FB01206070628B0821204600F0C2FB84
:104650002146BDE81040034800F06EBB31EA00027D
:10466000EAD010BD742D00200246154810B500EBAD
:10467000810050F8044C002C21D0208B1043208363
:104680006278618B062A17D0052A18D1084216D005
:1046900001EA0002628388432083204600F0A2FBE7
:1046A00001206070628B0821204600F093FB2046B9
:1046B000BDE81040FFF78ABF31EA0002EBD010BD21
:1046C0007428002070B503460C480D460468208B02
:1046D00042B133EA000101D0062109E0984320836A
:1046E000022070BD10EA030101D06183F6E70521C5
:1046F00063832846FFF716FF012070BD38000020B5
:10470000814202D342688A4201D801207047026880
:104710000A60BFF35F8F50E8003F0A689A42F6D103
:1047200040E80012002AF2D10020704768B161B160
:104730000022083902E00246006830B18842FAD10E
:104740002AB10068106000207047012070470021E6
:104750004160F8E70146406842684A600B780022F1
:10476000022B05D0012B03D0032B01D042607047F0
:1047700043680BB199604260826070470649074BFD
:1047800048681B6882789B789A4202D142684A60E6
:104790007047002070470000742D00203800002072
:1047A000810700D00020704770B5044600201546F0
:1047B000207001226270A17084F824106060A060F3
:1047C000E06020612062A082E0822083608384F820
:1047D0002500E08C18B90548FFF778FEE06229460D
:1047E0002046BDE8704000F011B800009804002099
:1047F00008B1082901D2012070470144091F002295
:1048000001600A60426010467047000070B5C28CBB
:104810001C4D930802D12A88C2F38D03C26A02EBB1
:104820008302540700D5121F4FF0807442E902142E
:1048300000242646B2F1400242F82460641C0E2C8B
:10484000FAD3C4691462826201632968C90014D56D
:10485000112B12D94FF0FF31103B11EB53014FF0E8
:10486000CC3305D042F8043C42F8083D491EF9D14A
:10487000C16A121F8A4200D91360C06A02490160EE
:1048800070BD0000F0650000A52E5AE2C189808944
:10489000081A704701220270002242708270426042
:1048A00002814281103982818908C18170470000EC
:1048B0002DE9F041044640680E464FF0000804F12F
:1048C0000C05E8B36078012701283ED0022813D0F8
:1048D00003285CD10846FFF7F9FD050057D02046B4
:1048E000FFF738FF0446294600F06EFA677020464D
:1048F00000F078FA214621E02046FFF72BFF06461C
:10490000002100F061FA2189F06904EB810108615E
:10491000D5E85F0F401C81B2C5E8501F0028F7D1D1
:104920002089401C80B22081E189884201D1A4F80D
:1049300008807770304600F055FA3146174800E09D
:104940000CE0BDE8F04100F0F7B92046FFF702FFA8
:1049500004463246102100F03DFAC7E7A089E189FC
:10496000884216D2208904EB80000661D5E85F0FEB
:10497000401C81B2C5E8501F0028F7D12089401C97
:1049800080B22081E189884201D1A4F80880BDE885
:10499000F081BDE8F0410320FCF7ABBD742D002091
:1049A00070B50446808915460026C0B3608904EBC3
:1049B0008000006908606089401C80B26081E189E4
:1049C000884200D16681606810B1607802280BD0FF
:1049D00014F10C04D4E85F0F401E81B2C4E8501FEC
:1049E0000028F7D1002070BD2046FFF7B3FE054632
:1049F000002100F0E9F92189E86904EB81010861EF
:104A00002089401C80B22081E189884200D1268122
:104A1000284600F0E7F92846FFF7D8FDE2E7FFE770
:104A20003DB10B48626801682AB1204600F084F964
:104A300008E0012070BD616001684E60006884601C
:104A40000120607008212846FFF76CFDF1E70000A7
:104A500038000020002814D0411C13D00C4A4FF617
:104A6000FE7190420CD800EB4002C2EBC012094824
:104A7000036803EBC202521EB2FBF3F0884204D972
:104A8000084670474FF6FF70704780B270470000CD
:104A900000093D00046600000321017000214180EF
:104AA00041608160C16070472DE9F0410446408853
:104AB00020B1314DA1682A68914202D0FF20BDE8A3
:104AC000F081401E0004000C608053D12968086A00
:104AD000A04209D1E068086208E0C268A24202D19F
:104AE000E268C26002E010460028F6D191F8240086
:104AF0000A6A06E053681BB19B78834200D91846C6
:104B0000D268002AF6D18870DFF8708061680126CB
:104B100011B32046FFF71EFE0746002100F054F9AE
:104B2000384600F05FF96680A760386AE0603C6252
:104B30002968D8F804008A788078824201D3384600
:104B400016E00E4800F0F8F839460C4800F0F4F88A
:104B5000286846707E700AE0D8F804108A782968C0
:104B6000824207D9054800F0E7F82868467000201F
:104B7000FFF72CFD0020A2E738000020742D002054
:104B800070B51C4D0E4604464188286861B1A26884
:104B9000824210D1A1F57F40FF3803D0491C6180CB
:104BA000002070BDFF2070BDA060016AE16004625A
:104BB00001206080F4E776B191788078814203D259
:104BC0009070A06800F0DEF8606830B12046296877
:104BD00000F0B2F808E0012070BD28686060296824
:104BE000002048602868846009213046FFF79AFC5D
:104BF000F1E700003800002070B51B480121026871
:104C00005170006800F0B4F8184D6C7818E000BFDF
:104C100005EBC40148680278EAB1012A20D000F00F
:104C20000DF9E878641C844200D100240F48801CF0
:104C3000D0E84F1F491EC9B2C0E8421F002AF7D171
:104C4000A8780028E4D16C700948FFF783FDBDE81F
:104C5000704000F01FB9098989B2FFF7DDFCE0E779
:104C60008968FFF725FEDCE738000020F0270020E8
:104C7000742D00200548017811B101214170704761
:104C800003494FF08050086070470000400000204A
:104C900004ED00E0F0B4154DAB1CEE784FEA0507CB
:104CA000D3E84F2FB24202D1BFF32F8F11E0521C35
:104CB000D4B2C3E8424F002AF2D100BFD7E84F2F49
:104CC000541CB44200D10024E4B2C7E8434F002B87
:104CD000F4D1EB78934205D905EBC202C2E9010198
:104CE000F0BC7047F0BC0220FCF703BCF0270020AA
:104CF000104A10B5D368ABB113469B8A03E08CB160
:104D00002246A48A2344D4688B42F8D3C460D0607E
:104D10000261C46804B12061591A8182908A401AE4
:104D2000908210BD0024C460D060C91A02619182D3
:104D3000848210BD8C2D002030B502780023022A19
:104D400003D0012A01D0032A00D101238C7800E08E
:104D50001046426812B19578A542F9D24A60416086
:104D60001BB102B19160886030BD0020FBE70000FC
:104D700003494A6842600022826048607047000030
:104D8000742D002010B5836804462BB96078012883
:104D90000ED1084B03E09B6818780028FBD0204612
:104DA00000F034F82146BDE810401846FFF7C4BFB4
:104DB00010BD0000742D002090F82510806A09B104
:104DC000603070472030704710B50C46FFF7F4FF95
:104DD000046010BD70B515460C46FFF7EDFFC0E945
:104DE000004570BD10B5016900290ED0C268CA60C7
:104DF000C36800223BB18B8A848A23448B82C368B8
:104E00001961C26000E08A82026110BD816839B117
:104E100042684A604168002901D080688860704714
:104E2000054906E04A68824202D1406848607047FE
:104E300011460029F6D17047742D002010B5416845
:104E400081B1FFF787FC0446FFF7CCFF01206070BB
:104E500001462046FFF7B8FF2146BDE81040034851
:104E6000FFF76ABF4188491C418010BD742D0020A6
:104E700006480068D0E90A10814203D3006804495B
:104E8000884202D00120FCF734BB70473800002074
:104E9000A52E5AE20749022248604270064A12785B
:104EA000002A05D006C98A4202D0C078FFF73AB975
:104EB00070470000380000204C00002070B5FFF75C
:104EC00009F900200446204A204902E042F8204027
:104ED000401C0B889842F9D31D48342201881D4894
:104EE000FFF7CEF81C48008880B240F000421B4813
:104EF00001681B48FFF7C4F81A48082201881A48BD
:104F00000068FFF7BDF8194DFF20194AE870EC84DE
:104F100000212846FFF748FC164804210170446030
:104F200015480170C4600461848214481549056005
:104F3000022068701248047044700978C170BDE89E
:104F40007040FCF7D7BA000074280020EC65000020
:104F50000C6600004C020020F065000010660000A6
:104F6000980400203466000018000020402D002026
:104F7000F1140000742D00208C2D0020380000203A
:104F8000F0270020186600001B4810B5016841F4A6
:104F90007F01016000684FF07F4101EA002016495F
:104FA000C0431439B0FA80F00968C0F10800C1F3B9
:104FB0000221814200D3481C0F49091F0B686FF082
:104FC0008072824063F317020A60FFF757FA0B49B9
:104FD000002808600EDB00F1E021FF2281F80024A8
:104FE00000F01F02012191404009800000F1E02003
:104FF000C0F8001110BD000020ED00E044000020CA
:105000000C4810B50268012151700068FFF7B0FE2E
:10501000FCF771FA08480168491C0160FFF79EFA25
:1050200000F0BEFB0548FFF795FBBDE81040FFF719
:1050300031BF00003800002048000020742D0020FF
:10504000002805D0810702D10178002900D0002076
:105050007047000030B50B4C0023626805E095688E
:105060008D4204D813461268491B002AF7D102600A
:10507000816012B19568691A91600BB1186030BDFA
:10508000606030BD300000200D4B0022596803E005
:10509000814204D00A4609680029F9D104E019B117
:1050A000016822B1116003E04FF0FF307047596092
:1050B000016819B18A6880681044886000207047D0
:1050C000300000202DE9F0411E46174680460D466F
:1050D00011F0FF0F00D14D1C1848FFF7F7F9041E1F
:1050E00016D0280AE762E084E9B242462046E6612B
:1050F000FFF75AFB01251248124905E000EB850233
:1051000052F8042C32B16D1C0A889542F6D9002061
:10511000BDE8F081002DFAD000EB850040F8044C8A
:105120000948E570007818B101212046FEF7EAFF32
:105130002046FFF74BFA2846EAE700004C02002021
:1051400074280020EC6500004C0000202DE9F05F81
:10515000584DDFF85891DFF8588129684FF0010A5F
:10516000002618B1CA78AB46824243D14E70FBF795
:10517000BEF829688862FFF77BFE2868046A1FE092
:105180006068C0B12046FFF7E5FA07460021FFF747
:105190001BFE3846FFF726FE87F801A03946464831
:1051A000FFF7CAFDE168A4F802A0A760386AE060D2
:1051B0003C620C4604E0E0686680A660E660044657
:1051C000002CDDD12868C27808EB820141F8046C1C
:1051D000C16A3A48FFF794FA2868C66299F8001045
:1051E00011B10021FEF78EFF35482968FFF788FAD4
:1051F0002E6056E03349098888420CD808EB8008B5
:1052000058F8045C3DB12846FFF700FE2846FFF73A
:10521000E9FD2C6A22E0FF20BDE8F09F6068C0B184
:105220002046FFF797FA07460021FFF7CDFD3846E5
:10523000FFF7D8FD87F801A039461F48FFF77CFD2E
:10524000E168A4F802A0A760386AE0603C620C46FE
:1052500004E0E0686680A660E6600446002CDDD1CC
:1052600048F8046C1548E96AFFF74AFAEE6299F8C3
:10527000000018B100212846FEF744FF29461048D7
:10528000FFF73EFA0C48DBF8001040688B78827814
:105290009A4209D981F801A00748DBF80010FFF70E
:1052A0004BFD0020FFF792F90020B5E74C000020ED
:1052B0007428002038000020742D0020980400205D
:1052C0004C020020EC65000070B5FFF757FA0400AF
:1052D0000CD0074D07482968FFF72EFD29680120EB
:1052E00048702046BDE87040FFF7D4BD70BD000097
:1052F00038000020742D002070B51A4D80B11A4A74
:10530000128890421FD8194A02EB800050F8044CD2
:10531000CCB1A17084F824102868A04205D014E014
:1053200028688170286880F82410114840688078C7
:10533000884215D90E482968FFF7FEFC296801202C
:10534000487000200AE0FF2070BD2046FFF71AFDDC
:105350006078012804D10648FFF7FCF9FFF736F919
:10536000002070BD38000020EC650000742800208B
:10537000742D002002480068002800D0C0787047D3
:105380003800002000B52DED048B83B041EC190BE3
:1053900000F030FE41EC180B18EE100A18EE901ACF
:1053A0008DED008B002818BF0120084320F000403D
:1053B000C0F17F6000F1E040C00F14D019EE101A68
:1053C00019EE900A8DED009B002918BF01210843BA
:1053D00020F00040C0F17F6000F1E040C00F04BF4A
:1053E0000120FCF74AFB51EC180B03B0BDEC048B19
:1053F00000BD10B5002804D0FFF72CFBFFF708F91B
:10540000402010BD10B5134C207860B912484007F9
:1054100005D1124801681048FFF7EAF908B1852064
:1054200010BDFFF74BFD0E49FF20096888702078FA
:1054300058B900210B4800F05DF80B4908600021C5
:105440000A4800F0C3F80A490860012020700020D3
:10545000607010BD30000020E823002014660000BA
:10546000380000202C660000200000201C66000090
:105470001C00002070B50F4D687808B1002070BD89
:105480000D4C206890F824100020FFF735FF2068AD
:10549000C178FF2903D1816A203181F309886168CD
:1054A00011B9606000202060FFF76EFD0120687078
:1054B000E4E70000300000203800002070B5FEF75F
:1054C000FBFF0446FEF7F0FF0849094E0D686D1C0E
:1054D00048B1FEF7F1FFA04200D204463068401CFC
:1054E00005FB004070BD3068FAE70000F46500007D
:1054F0004800002010B5040005D0216819B160688B
:1055000008B102780AB1002010BD8900103189B2BB
:10551000FFF7C0F9606810BD3EB504000D464FF0BE
:10552000800012D0217801290FD12846FFF792FA86
:105530000246204601A9FFF733FA012801D01020C6
:1055400003E00DB1402000E00020DDE9011203B0CE
:1055500030BD70B50C46FFF773FD4FF0004108B148
:10556000220C01D0084670BD058BC178A0B2FFF7B0
:105570007BF8284670BD000070B504460D46000C4F
:1055800001D086201EE008462CB1FFF763FA0146E1
:10559000A0B2012205E0FFF75DFA014600224FF6B6
:1055A000FF70FFF78FF8022802D04DB1402008E0CD
:1055B00008200CB1214605E003490968498B01E048
:1055C00000200021324670BD3800002070B50E4624
:1055D000040029D0206838B3606810F1030F23DB82
:1055E000032821DCE16829B11048FEF77CFF0500A3
:1055F0001AD000E000256068E168001D40EA012142
:1056000033462A462068FFF75DFD40B1084901EBAB
:105610008000084950F8040C826A516370BD1DB1C6
:1056200029460248FFF782F8002070BDE8230020D9
:10563000742800208943000010B5FFF79BFE002866
:1056400004D0034901EB800050F8040C10BD0000A9
:105650007428002010B50C46FFF7F2FC20B1E11CC5
:10566000072903D3862010BD802010BD241DE1B280
:10567000C078FFF741FEFF2801D0002010BD812037
:1056800010BD000010B5FFF7DBFC18B1C18C19B1DB
:10569000C46A02E0802010BD0024C078FFF756FDE8
:1056A000FF2806D01CB121460348FFF73FF8002031
:1056B00010BD812010BD0000E823002010B5FFF7C9
:1056C00003FE002010BD10B5FFF76AF820B1416954
:1056D0000A680169104610BD0020014610BD000097
:1056E00010B503000CD0186850B15868002808D0D5
:1056F00009B1012904D1074C24680CB104790CB11B
:10570000002010BD00240460012404714171C0E92F
:10571000042310BD1C00002070B50E46FFF740F8B2
:10572000040016D0BEB1144A00214FF47A731068F9
:105730001268401E41F1FF35E6FB030529460023B0
:10574000FBF7CCFF0546207901280CD0022808D1B0
:1057500003E0802070BD862070BD2046FFF794FCDA
:1057600020B1812070BD02202071E56029462046CD
:10577000FFF770FC002070BD0466000010B5FFF755
:105780000FF818B10179022908D101E0802010BD7D
:1057900001210171FFF778FC0028F8D0812010BDAD
:1057A0002DE9F041134E7468002C1CD0A068124FF4
:1057B000401E4FF00108A06012E025462468746086
:1057C000002229463868FEF7D6FC10B10420FBF70A
:1057D00090FE6879012808D085F80480002C02D05A
:1057E000A0680028E9D0BDE8F0812846E968FFF705
:1057F00031FCF3E7300000202000002010B5002924
:105800000AD00878002807D005487844FCF702FD44
:10581000002801D0002010BD0248784410BD0000CF
:10582000FA150000F215000081F00041704780F089
:105830000040704721F00041704720F00040704761
:1058400021F00042A2F16052B2F5801F01F0004346
:1058500028BFD2F17F6C0BD95FEA001C43EAC20279
:1058600042EB507018BF704728BF20F0010070470E
:10587000B2F5801FBCBF184670474FEA410C1CF5BB
:10588000001F02D2084600F0E1BD70B500F01CFB1D
:1058900000000089FFF7F6BF4FF00040A0F5800040
:1058A0007047000010B591EA030F48BF83F0004332
:1058B00000F17484841A71EB030C05D2121943EBC6
:1058C0000C03001B61EB0C01DFF824E14FEA1154DB
:1058D000A4EB135C1EEA430F18BF9EEA445F73D02B
:1058E00023EA0E03DCF1200E21EA045143F4801375
:1058F00032D322FA0CFE10EB0E0023FA0CFE41EB21
:105900000E01CCF1200E03FA0EFE10EB0E0051F149
:105910000001B1F5801FCCF1200E32D201EB045111
:1059200012FA0EF2BDE8104058BF7047401C38BF55
:105930005FEA420218BF7047002814BF20F0010040
:1059400041F100014FEA410313F5001F38BF7047D2
:10595000A1F1C04100F006BB012A43EB0302ACF108
:10596000200CDCF11F0E32BF4FF0000E23FA0CF3B7
:1059700010EB030041EB0451B4EB115FD0D0A1EB6D
:10598000045101F5801149085FEA300001EB045130
:105990000ED350F1000038BF12FA0EFE08D1BDE858
:1059A0001040C9E7401C38BF5FEA4202CAD1C3E7D2
:1059B000BDE810404FEA410313F5001F38BF7047A0
:1059C000A1F1C04100F0CEBA9EEA445F08D011EACE
:1059D0005E0FBDE8104004BF01F000410020704799
:1059E000BDE8104070B500F06FFA00BF64FBBE3E2A
:1059F0000000E0FF02494FF0000000F02EBD00BFA4
:105A00000000F87F491058BFC1F140415B1058BFFA
:105A1000C3F140438B42EFF3008070472DE9C04152
:105A200030B4DFF8A0C23CEA111418BF3CEA1314EA
:105A300000F0EC8081EA03051CEA111444EAD574F5
:105A400018BF1CEA131500F0C780A4EB05044FF043
:105A5000004545EAC12145EAC32341EA505143EAE2
:105A6000525304F17F74994204F500344FEAC02088
:105A70004FEAC22208BF904200F09C804FEA1365B3
:105A80000FF24016765D4FEA134506FB05F7C7F1A6
:105A9000807706FB07F74FEAD737A7FB0368764204
:105AA000C8F58038A7FB06CE38BFA8F1010807FB70
:105AB00008E64FF0000EA6FB028CE6FB03CEDCF1FD
:105AC000000CCEF1004E38BFAEF1010EA6FB0C5813
:105AD0004FF000074FF00005E6FB0E87A1FB08C65C
