:020000040000FA
:10000000A8440020C5170000CD170000CF1700003E
:10001000D1170000D3170000D51700000000000022
:100020000000000000000000000000007503000058
:10003000D9170000000000002D040000910400000A
:10004000DF170000E1170000E3170000E5170000CC
:10005000E717000045050000EB170000ED17000052
:10006000EF170000F1170000F3170000F51700006C
:10007000F7170000F9170000FB170000FD1700003C
:10008000FF17000001180000031800000518000009
:1000900007180000091800000B1800000D180000D8
:1000A0000F180000111800001318000015180000A8
:1000B00017180000191800001B1800001D18000078
:1000C0001F18000021180000231800002518000048
:1000D00027180000291800002B1800002D18000018
:1000E0002F180000311800003318000035180000E8
:1000F00037180000391800003B1800003D180000B8
:100100003F18000041180000431800004518000087
:1001100047180000491800004B1800004D18000057
:100120004F18000051180000531800005518000027
:1001300057180000591800005B1800005D180000F7
:100140005F18000061180000631800007D180000AF
:1001500000000000000000007F180000811800006F
:1001600083180000851800000000000087180000B8
:10017000891800008B1800008D1800008F180000EF
:1001800091180000931800009518000097180000BF
:10019000991800009B1800009D1800009F1800008F
:1001A000A1180000A3180000A5180000A71800005F
:1001B000A9180000AB180000AD180000AF1800002F
:1001C000B1180000B3180000B5180000B7180000FF
:1001D000B9180000BB180000BD180000BF180000CF
:1001E000C1180000C3180000C5180000C71800009F
:1001F000C9180000CB180000CD180000CF1800006F
:1002000000F002F800F061F80AA090E8000C8244C7
:100210008344AAF10107DA4501D100F056F8AFF2A4
:10022000090EBAE80F0013F0010F18BFFB1A43F0D4
:1002300001031847BC430000DC4300000A444FF0B0
:10024000000C10F8013B13F0070408BF10F8014B35
:100250001D1108BF10F8015B641E05D010F8016B7A
:10026000641E01F8016BF9D113F0080F1EBF10F8DE
:10027000014BAD1C0C1B09D16D1E58BF01F801CB01
:10028000FAD505E014F8016B01F8016B6D1EF9D584
:100290009142D6D370470000002300240025002699
:1002A000103A28BF78C1FBD8520728BF30C148BFD9
:1002B0000B607047732901F02284002070471FB53E
:1002C00003F0DCFC1FBD10B510BD01F023FC11468E
:1002D000FFF7F5FF0FB400F00BF80FBC00F0E2F8E9
:1002E00001F08FFB03B4FFF7EEFF03BC01F00CFC41
:1002F00004B002F069FA0448002102F023FB02F086
:1003000075FA01F07EFB0000943D000080F309883F
:100310007047EFF309807047684680F30988044806
:100320000078C00714BF0220032080F314887047B0
:10033000543D0000DFF818C0EFF305831B0618BF1B
:100340006047EFF31483DB0708BF604700DF7047A7
:10035000032A0000DFF818C0EFF305831B0618BF5F
:100360006047EFF31483DB0708BF604700DF704787
:10037000E92B0000EFF30980816911F8021CE1BB51
:1003800090E80F1010B5E047BDE81040EFF3098C7E
:100390008CE80700214B93E80600914208BF7047A4
:1003A00041B91EF0100F16D11D49086820F0010058
:1003B000086010E01EF0100F06BF2CED108A01201F
:1003C000002081F825002CE9F00FC1F828C00CB4FA
:1003D00003F01AF80CBC1A60D2F828C0BCE8F00F81
:1003E00092F8250000280EBF6FF0020E6FF0120E7B
:1003F000BCEC108A8CF30988704710B5094A126862
:10040000914209D8084C54F8214090E80F10A047B9
:10041000EFF3098C8CE80F0010BD0000B40D002034
:1004200034EF00E0601B0000601B000010B502F01C
:10043000AFFEBDE81040154B93E80600914208BF9F
:100440007047EFF3098C1EF0100F06BF2CED108AD9
:100450000120002081F825002CE9F00FC1F828C008
:100460000CB402F0D1FF0CBC1A60D2F828C0BCE872
:10047000F00F92F8250000280EBF6FF0020E6FF00B
:10048000120EBCEC108A8CF309887047B40D002062
:1004900010B503F081F8CCE710B502F0B1FA03F023
:1004A0007BF8C6E738B502F08FF900F0DAFC0021DE
:1004B000224802F019FA224C20602048002108301E
:1004C00002F012FA60601D480021103002F00CFAB0
:1004D000A0601A480021183002F006FAE0601748C0
:1004E0000021203002F000FA206114480021283059
:1004F00002F0C0F96061206800F02DF821466068C4
:1005000000F078F860690090201D22690BC800F0A7
:100510009AF9A06800F0BEFBE06800F0F7FB2069E4
:1005200000F0D6FB606900F039FD02F05FF94FF092
:10053000FF3002F03DF9002038BD0000883C00008B
:100540000800002024480068C1B22448017000223D
:10055000406802F0EBB9214948602148016841F048
:10056000010101601E481038016841F0010101607D
:100570001C49032008601C4A112111601A491039D6
:100580000860154810218163184A136843F020035E
:100590001360026B22F00102026340F20D324262EC
:1005A00081626021C162124A0021116040F2013172
:1005B0000163704708498A699206FCD40860704755
:1005C00030B504460D46002303E0E05CFFF7F2FF80
:1005D0005B1CAB42F9DB30BD00C0004020000020B6
:1005E00018E60F40208405402C85054000E100E01E
:1005F000C8CF004010B5104A1060516000210F486C
:1006000002F0A0F9002800D1401E10BD0EB54FF039
:10061000FF35094C05E00198C1B22A46206802F076
:1006200085F960682946006802F074F98DE80700D2
:1006300000981028F5D1EEE728000020BC3C00000F
:1006400070B5044600202060606000F0ADFFF949FD
:10065000F94801F06BFBF949F74801F063FBF8A199
:1006600004F1080001F0D6F9F84D2868A06205F100
:100670002400E062002005F16C0107E0C0EB0012ED
:1006800004EB800301EB42021A63401C2A6890428B
:10069000F4DBEFA104F1800001F0BCF96868C4F854
:1006A000A000EF48C4F8A4000020ED49503108E054
:1006B000C0EB001204EB800301EB4202C3F8A82058
:1006C000401C6A689042F3DBE6A104F1F80001F0F7
:1006D000A1F9A868C4F81801E648C4F81C01002074
:1006E000E449343108E0C0EB001204EB800301EB75
:1006F0004202C3F82021401CAA689042F3DBDEA12D
:1007000004F5B87001F086F9E868C4F89001DE4895
:10071000C4F894010020DC49343108E0C0EB001239
:1007200004EB800301EB4202C3F89821401CEA6805
:100730009042F3DBD5A104F5F47001F06BF9286960
:10074000C4F80802D448C4F80C020020D249283169
:1007500008E0C0EB001204EB800301EB4202C3F897
:100760001022401C2A699042F3DBCCA104F51870DA
:1007700001F050F96869C4F88002CB48C4F88402DB
:100780000020C949243108E0C0EB001204EB8003CB
:1007900001EB4202C3F88822401C6A699042F3DBF5
:1007A000C2A104F5367001F035F9A869C4F8F80261
:1007B000C248C4F8FC020020C0490C3108E0C0EB7C
:1007C000001204EB800301EB4202C3F80023401C3B
:1007D000AA699042F3DBBAA104F5547001F01AF94A
:1007E000E869C4F87003B5486830C4F874030020A1
:1007F000B249903108E0C0EB001204EB800301EB3A
:100800004202C3F87823401CEA699042F3DBAFA1AF
:1008100004F5727001F0FEF8286AC4F8E803AF48E6
:10082000C4F8EC030020AD490C3108E0C0EB001225
:1008300004EB800301EB4202C3F8F023401C2A6A58
:100840009042F3DB70BD70B5049D7B4C2C34A360EB
:100850006260E16020602561A4F26C40FFF7F0FE69
:1008600000219F4802F06EF8002800D1401E70BDA4
:1008700070B506464FF0FF31304601F0EDFF0446FB
:10088000984D2868C0EB001005EBC001083104F159
:10089000780001F0BFF8002205E003EB8200006B56
:1008A00044F82200521C2B68C3EB031005EBC00375
:1008B000986A9042F1DC6868C4F898002868C0EB38
:1008C000001005EBC000806AC4F89C002146304649
:1008D00001F0FFFFBDE8704002F056B82DE9F0418D
:1008E00080490868C0EB001001EBC0004968C06A8D
:1008F00050F82100C0F30741C0F30725C6B24E4CA3
:100900004FF0FF372C343A46E06802F00FF83A46D1
:100910002946606802F00AF83A463146A06802F0BB
:1009200005F82069BDE8F041A2E72DE9F04F8BB052
:100930000626414C61680A6A486800219047606158
:1009400061680A6A48686FF07F41904720614FF004
:10095000010A0020DFF88C91CDE9000AD9F80000E7
:100960004FF0FF3BC0EB001009EBC0010831002342
:100970005A46204601F033FCD9F80000C0EB0010C5
:1009800009EBC000806A0D2818DA00EBD070461021
:10099000022000EB4605002470420C2101EB4007C9
:1009A0000AE06D1CE800CDE9000A00235A464EA17A
:1009B000214801F014FC641CA742F2DC0127D9F89D
:1009C0000400841BD9E0002C08DAD9F80010C1EB30
:1009D000011109EBC101896A0D190BE0D9F800106A
:1009E000C1EB011109EBC101896AA14201DC651A61
:1009F00000E025467F1CA0421AD1DFF83C80D9F8E0
:100A00000000C0EB001009EBC000D8F80420C06A59
:100A100050F825105068126A9047C8F81400D8F8AA
:100A200004100A6A486800219047C8F8100081E065
:100A300066E000001C3D0000001E0020284500006C
:100A4000426C756520436F6C6F727300300000203C
:100A5000477265656E20436F6C6F72730000000013
:100A6000B802002042726F776E20436F6C6F727312
:100A70000000000060050020507572706C65204316
:100A80006F6C6F72730000001C0700204379616E69
:100A900020436F6C6F727300D808002050696E6B32
:100AA00020436F6C6F7273002C0A00204F72616ECE
:100AB000676520436F6C6F7273000000600B00204D
:100AC00052656420436F6C6F7273000059656C6CE3
:100AD0006F7720436F6C6F72730000001C0D002055
:100AE000CC3C0000C0190020202020202020202005
:100AF0002020202020202020202020200000000076
:100B0000DFF88881D8F804100A6A48680021904705
:100B1000C8F81400D9F80000D8F80420C0EB001081
:100B200009EBC000C06A50F825105068126A90475F
:100B3000C8F81000D9F80000C0EB001009EBC000A5
:100B400000EB8500016B03A800F064FF03A800F030
:100B500085FF054605E003AA4DA103A800F0E0FECD
:100B60006D1C142DF7DBF800CDE9000A00235A466E
:100B700003A9464801F033FB641CD9F8040081192D
:100B8000A142BFF620AF0BB0BDE8F08F0EB5FFF766
:100B9000CCFEFFF7A3FE3D4E4FF0FF372C3600256D
:100BA000A6F26C443946306801F0B4FE8DE80700C7
:100BB00000981028F6D10198C0B2772806D0732883
:100BC00012D061281DD0642824D02AE06068401E1D
:100BD0006060002825DA2068C0EB001004EBC0003C
:100BE000806A401E60601CE06068401C6060216894
:100BF000C1EB011104EBC101896A884211D1656022
:100C00000FE02068401E20606560002809DA082097
:100C1000206006E02068401C20606560092800D143
:100C20002560FFF782FEFFF759FEBBE770B5174C52
:100C300061680A6A486800219047606161680A6AD1
:100C40004868002190472061002508240F48B0F92A
:100C50000810A94212DCB0F90C10A9420EDBB0F961
:100C60000A10A1420ADCB0F90E10A14206DB41686D
:100C700003692246CE6848682946B047641C782C30
:100C8000E4DB6D1C802DE0DB70BD0000001E002049
:100C90002573200010B501460C4801F053FE0028D2
:100CA00000D1401E10BD0EB505464FF0FF3403E0E5
:100CB0000198C0B200F048F82146284601F02AFE0B
:100CC0008DE8070000981028F6D1F1E7DC3C000021
:100CD00010B501460C4801F035FE002800D1401E39
:100CE00010BD0EB505464FF0FF3403E00198C0B2C9
:100CF00000F053F82146284601F00CFE8DE807006D
:100D000000981028F6D1F1E7EC3C000010B5014640
:100D10000C4801F017FE002800D1401E10BD0EB592
:100D200005464FF0FF3403E00198C0B200F05EF8D2
:100D30002146284601F0EEFD8DE8070000981028B6
:100D4000F6D1F1E7FC3C000070B50446894E8A4DAF
:100D5000022C06D2287820B100220421304601F06E
:100D600087FA8021304601F071FA6043FF21B0FB21
:100D7000F1F28221304601F083FA022C06D3287862
:100D800020B901220421304601F072FA022C01D36D
:100D9000012000E00020287070BD70B50446754E3B
:100DA000754D022C06D2687820B100220821304609
:100DB00001F05EFA8021304601F048FA6043FF21DD
:100DC000B0FBF1F28321304601F05AFA022C06D32F
:100DD000687820B901220821304601F049FA022C36
:100DE00001D3012000E00020687070BD70B504469A
:100DF000604E614D022C06D2A87820B1002210214D
:100E0000304601F035FAC021304601F01FFA604348
:100E1000FF21B0FBF1F2C421304601F031FA022C7F
:100E200006D3A87820B901221021304601F020FA1B
:100E3000022C01D3012000E00020A87070BD70B525
:100E40000C461546FFF780FF2046FFF7A6FF284611
:100E5000BDE87040CAE7C2B2C0F30721C0F3074043
:100E6000EDE72DE9F0414549454801F019FA424CBA
:100E70006060444E304601F089FB434D284601F046
:100E800085FB284601F082FB6F1C384601F07EFB93
:100E9000304601F08FFB60B9284601F08BFB40B96A
:100EA000284601F087FB20B9384601F083FB002873
:100EB000EED0304E8021304601F0BEF98021304620
:100EC00001F0BAF9C021304601F0B6F92F4D0421E6
:100ED000284600F019FF0821284600F015FF0121DF
:100EE0002B4800F011FF40F20511304601F087F960
:100EF000284800F0E7FE284800F0E4FE4FF0061016
:100F000000F0E0FE00228021304601F082F900224C
:100F10008021304601F07DF90022C021304601F0E9
:100F200078F960684FF4FA45B0FBF5F2802130465D
:100F300001F095F960688021B0FBF5F2304601F0D0
:100F40008EF96068C021B0FBF5F2304601F087F9F8
:100F50000020FFF780FF8021304601F072F98021E8
:100F6000304601F06EF93046BDE8F041C02101F095
:100F700068B9000000800240840D0020000E2707A1
:100F8000800600F1004000F0050800F0005002402B
:100F90000060024006080500060C050010B5014679
:100FA000244801F0CFFC002800D1401E10BD0EB532
:100FB00007464FF0FF363146384601F07FFC8DE89A
:100FC000070000982028F6D1019D0C20FFF7F2FAC7
:100FD00005F17800044600F041FD01462046FFF788
:100FE000EFFA022114A0FFF7EBFA022112A0FFF79B
:100FF000E7FA002414E0D5F89800A04202D12A2094
:10100000FFF7D8FA55F8240000F028FD014655F8FE
:101010002400FFF7D5FA022107A0FFF7D1FA641CDC
:10102000D5F89C00A042E6DC2946384601F038FCA1
:10103000C1E700000C3D00000D0A000002880B888B
:1010400003800A80704702680B6803600A6070477B
:1010500038B54FF08074F84DA269014628461268F1
:101060009047A069816B284688470028F9D1A0697C
:101070006946426A284690470098C0B238BD70B5AC
:1010800005464FF080740022206A08210368EB486F
:101090009847206AEA4E00220368042130469847A8
:1010A0002846FFF7D5FF206A042211460368304620
:1010B000BDE8704018472DE9F04104460D464FF059
:1010C00080760822306A11460368DC489847306A07
:1010D000DB4F0022036804213846984703E020785C
:1010E000FFF7B6FF641C6D1E681CF8D1306A04223D
:1010F000114603683846BDE8F041184713B5FFF7BD
:10110000BEFF012101A8FFF7D6FF1CBDF8B50446BC
:101110000D4616461F46CB48A11CAA1C0078002885
:1011200009D0B31C07F1020C01280BD0022811D002
:1011300003281DD115E08CB2F61CB6B295B2FF1C87
:10114000BFB215E0E41CA4B29EB2ED1CADB21FFA12
:101150008CF70DE08CB2761CB6B295B27F1CBFB294
:1011600006E0641CA4B29EB26D1CADB21FFA8CF7EF
:101170002A20FFF784FF200A8DF800008DF8014037
:1011800002216846FFF797FF280A8DF800008DF8C6
:10119000015002216846FFF78EFF2B20FFF76FFFFB
:1011A000300A8DF800008DF8016002216846FFF7D3
:1011B00082FF380A8DF800008DF801700221684620
:1011C000FFF779FF2C20FFF75AFFF8BD2DE9F04714
:1011D000089CE6B2C4F307270C1A641CA3EB0209AF
:1011E00009F10109FFF792FF4FF080750822286A84
:1011F0001146036891489847286ADFF84482002224
:10120000036804214046984704FB09F444B138467A
:10121000FFF71EFF3046FFF71BFF641E002CF6D1C0
:10122000286A0422114603684046BDE8F047184783
:1012300038B50C4604990091C118134689B222466C
:10124000FFF7C4FF38BD38B5049C13449BB200942B
:10125000FFF7BCFF38BD38B50C46A11800938BB220
:10126000811889B22246FFF7B1FF38BD084691B216
:1012700080B20022EFE72DE9F05F1E46DDE90B8525
:101280000D9F0A9C93B208191FFA80FC88B292B293
:101290006146FFF73BFF4FF0807A0822DAF8200022
:1012A0001146036865489847DAF82000DFF890B1E6
:1012B0000022036804215846984728F080400128FE
:1012C00021D0042822D0082870D010287ED17AE0BE
:1012D00015F8019B12E0C6F1070029FA00F000F0B2
:1012E000010037F8200000F0FF08C0F30720FFF7E7
:1012F000AFFE4046FFF7ACFE761C641E082E01DAF6
:10130000002CE8D10026002CE2D15FE016F00100AD
:1013100033D001285AD117E02878000900EB4000AB
:10132000385800F4780100F47C42090A41EA52116D
:10133000C0F3C4000143CEB2080AFFF789FE30466D
:10134000FFF786FE641EC4B115F8010B00F00F0014
:1013500000EB4000385800F4780100F47C42090AA0
:1013600041EA5211C0F3C4000143CEB2080AFFF7AC
:101370006FFE3046FFF76CFE641E002CCCD125E0DA
:1013800015F8010B00EB4000385800F4780100F428
:101390007C42090A41EA5211C0F3C4000143CEB2B3
:1013A000080AFFF755FE3046FFF752FE641E601C28
:1013B000E6D10BE035F8020BC6B2000AFFF748FE93
:1013C0003046FFF745FE641E601CF3D1DAF82000BA
:1013D0000422114603685846BDE8F05F18473FB540
:1013E00081B01C46089DDDE90201884203DD03A9A6
:1013F00002A8FFF728FE0398A2B281B202980095D6
:1014000080B20023FFF71FFF05B030BD3FB581B0AC
:101410000C46089DDDE90301884203DD04A903A809
:10142000FFF711FE0498009582B20398002381B261
:10143000A0B2FFF7FDFEE7E700A000400020064055
:10144000004006408C0D002010B586B014460B8875
:101450000593888804904A880392C9880291834240
:1014600003D904A905A8FFF7E9FDBDF80C00BDF8F4
:101470000810884203D902A903A8FFF7DFFD0094F2
:10148000BDF80830BDF80C20BDF81010BDF81400F0
:10149000FFF79CFE06B010BD01F4780001F47C4219
:1014A000000A40EA5210C1F3C40108437047704774
:1014B00038B50446002000908C4904F011000870F3
:1014C0003620FFF7DCFD34B1012C07D0022C08D008
:1014D000032C0BD108E0C820009007E0A820009062
:1014E00004E00820009001E0682000900121684697
:1014F000FFF7E1FD38BD38B505467C48047800208B
:10150000FFF7D6FF7F230022194610460095FFF70C
:101510005DFE2046BDE83840CAE70020EBE7FEB597
:10152000002002907249734800F0BAFE6F4F786055
:101530004FF08074606C81696F488847606C816986
:101540006E488847206A816E6D488847206A816EA0
:101550006C488847206A816E6B488847206A816E94
:101560006A488847206A0F21C26C69489047A06981
:10157000684D0521026C2846904708206649CDE950
:101580000010A06900231A46466828467968B047CB
:10159000A069816828468847A06902A9826A28460E
:1015A00090470028F8D1FEBD70B5FFF7B8FF4FF0A7
:1015B0008074606C81695148001D8847606C816946
:1015C0004E48C01D8847606C81694C480930884787
:1015D000206A524D0821C26B28469047206A082194
:1015E000C26B4F489047206A0421C26B4D48904718
:1015F000206A08221146036828469847606CD0F894
:1016000088104FF47A708847206A00220821036806
:1016100028469847606CD0F888104FF4FA708847D5
:10162000206A08221146036828469847606C4FF4E8
:101630009665D0F88810284688470120FFF71FFDDF
:10164000606CD0F8881040F2DC5088471120FFF71A
:1016500016FD606CD0F888104FF4FA6088470421BA
:101660002620FFF74BFDB120FFF709FD02212EA038
:10167000FFF721FDC020FFF702FD02212BA0FFF79D
:101680001AFD05213A20FFF739FD606CD0F888106B
:101690006420884708213620FFF730FD2A20FFF715
:1016A000EEFC042122A0FFF706FD2B20FFF7E7FC4C
:1016B00004211FA0FFF7FFFC1320FFF7E0FC606C84
:1016C000D0F88810642088472920FFF7D8FC606C88
:1016D000D0F88810284688472C20FFF7D0FC00203F
:1016E000FFF7E6FEBDE8704017E700008C0D002014
:1016F000000E2707800600F1021C00F0030800F02E
:101700000F0C03000F0803000F0403000F00030079
:101710000070004000A0004000879303007002406A
:1017200000200640004006400A1400000A000000A5
:101730000000007900000000FEE7FEE71A4810B53F
:10174000007848B102F0C4F830B1184900EB40000D
:1017500001EB4010603810BD154810BD154A10B59A
:1017600011680346082900D3FEE7134800EB011077
:10177000491C1860116001F05BFC012010BD0A4992
:101780000978002905D000684FF6FF71DFF82CC0FA
:1017900000DF704704490978002903D00068DFF8AA
:1017A00020C000DF70470000AD0D0020003E00208B
:1017B00044420020A00D00206041002019310000AB
:1017C000413000004548804745480047FEE7FEE7B6
:1017D000FEE7FEE7FEE7FEE7FEE7FEE7FEE7FEE7E1
:1017E000FEE7FEE7FEE7FEE7FEE7FEE7FEE7FEE7D1
:1017F000FEE7FEE7FEE7FEE7FEE7FEE7FEE7FEE7C1
:10180000FEE7FEE7FEE7FEE7FEE7FEE7FEE7FEE7B0
:10181000FEE7FEE7FEE7FEE7FEE7FEE7FEE7FEE7A0
:10182000FEE7FEE7FEE7FEE7FEE7FEE7FEE7FEE790
:10183000FEE7FEE7FEE7FEE7FEE7FEE7FEE7FEE780
:10184000FEE7FEE7FEE7FEE7FEE7FEE7FEE7FEE770
:10185000FEE7FEE7FEE7FEE7FEE7FEE7FEE7FEE760
:10186000FEE7FEE7FEE7FEE7FEE7FEE7FEE7FEE750
:10187000FEE7FEE7FEE7FEE7FEE7FEE7FEE7FEE740
:10188000FEE7FEE7FEE7FEE7FEE7FEE7FEE7FEE730
:10189000FEE7FEE7FEE7FEE7FEE7FEE7FEE7FEE720
:1018A000FEE7FEE7FEE7FEE7FEE7FEE7FEE7FEE710
:1018B000FEE7FEE7FEE7FEE7FEE7FEE7FEE7FEE700
:1018C000FEE7FEE7FEE7FEE7FEE7FEE7FEE7FEE7F0
:1018D00004480549034A054B70470000F918000009
:1018E00001020000A8420020A8440020A8420020D5
:1018F00007490648086070470648016841F47001CE
:10190000016003490148086070470000000E270786
:10191000A40D002088ED00E00048704744420020FC
:101920000FB41CB5074B06AA7B4469460090059886
:1019300000F0BBF80020694600F0CAF81CBC5DF856
:1019400014FB0000A50100002DE9F0410E460446FD
:10195000002020622046E168884730B3252805D062
:10196000D4E901219047206A401CF2E7E168204653
:1019700000278847050018D0A5F14100192802D892
:1019800020354FF400673246294620462760FEF78F
:1019900091FC40B1012804D0F61D26F00706083658
:1019A000D8E7361DD6E72846DAE7206ABDE8F08199
:1019B00070B50C460546012A05D02878800600D56A
:1019C000EA69002302E0012305E05B1C934202D296
:1019D000E05C0028F9D1A869E618C01AA861286A55
:1019E000184428622846AFF3008004E0D5E90121BD
:1019F00014F8010B9047B442F8D32846AFF30080A7
:101A000070BD10B50446AFF300802046BDE810401D
:101A1000FEF768BC40EA0103024630B59B0710D1CF
:101A20004FF0013400E008C208C91D1B9D4315EAB0
:101A3000C41FF8D013F0FF0102F8011B0DD01B0AE0
:101A4000F8E711F8013B002B02F8013B05D011F833
:101A5000013B002B02F8013BF3D130BD10B5431C14
:101A600002E010F8011B71B18107FAD14FF0013289
:101A700002C88C1A8C4314EAC211F9D0C01A0A06A3
:101A800003D0C01E10BDC01A10BD0A0401D0801EB4
:101A900010BD0902FCD0401E10BD70477047704752
:101AA00001694A1C02610878704700B58FB0CDE922
:101AB00001310021059105497944CDE90310114612
:101AC0006846FFF741FF0FB000BD0000E5FFFFFFD4
:101AD0000A6802F8010B0A60704710B5436913B138
:101AE000AFF3008001E0FFF763FF012010BD127823
:101AF00000F124010A7000224A700122EDE711680A
:101B00004FF0FF32E9E7000001491820ABBEFEE7C5
:101B1000260002007546FFF7FFFEAE460500694647
:101B2000534620F00700854618B020B5FFF7D0FED9
:101B3000BDE820404FF000064FF000074FF00008CE
:101B40004FF0000B21F00701AC46ACE8C009ACE84F
:101B5000C009ACE8C009ACE8C0098D4670477047C1
:101B600000000000D0F8003412F0010F14BF0B4346
:101B70008B43C0F8003412F0020FD0F8202414BFB9
:101B8000114322EA0101C0F8201470472DE9F00347
:101B900001264FF0000C0325C2F3411706FA0CF49E
:101BA0000C4211D0D0F8C48F4FEA4C0405FA04F966
:101BB00028EA0908C0F8C48FD0F8C48F07FA04F4E3
:101BC00048EA0404C0F8C44F0CF1010C0CF0FF0CFF
:101BD000BCF1080FE2D3D0F800C512F0010F14BF1A
:101BE0004CEA010C2CEA010CC0F800C5D0F804C581
:101BF00012F0020F14BF4CEA010C2CEA010CC0F8E1
:101C000004C5D0F808C512F0040F14BF4CEA010C4B
:101C10002CEA010CC0F808C5D0F818C512F0080F5E
:101C200014BF4CEA010C2CEA010CC0F818C512F0E4
:101C3000100FD0F83C2514BF0A438A43C0F83C2556
:101C4000D0F80C2513F0010F14BF0A438A43C0F8E3
:101C50000C25D0F8102513F0020F14BF0A438A4355
:101C6000C0F81025D0F8142513F0040F14BF0A4350
:101C70008A43C0F81425D0F81C2513F0080F14BFB0
:101C80000A438A43C0F81C25D0F8442513F4007F8A
:101C900014BF0A438A43C0F84425D0F8402513F402
:101CA000407F14BF0A438A43C0F84025D0F8282556
:101CB000002B0CBF114322EA0101C0F82815BDE832
:101CC000F00370470E4AC0F30741D26E01238B40E8
:101CD0001A420C4A1ABF02EBC101496852F831108E
:101CE000020AD1F82C354FF00F0C0CFA02FC00F070
:101CF0000F0023EA0C0390401843C1F82C057047ED
:101D000000E00F403C3F000030B50C460546022283
:101D1000FFF728FF21462846BDE83040082301226E
:101D2000FFF734BF816100F05BBC00002C22C0E9EA
:101D300000210022028142810B895B1E8381498937
:101D4000491EC18102610F4942618261096861B126
:101D50000B68C3614B6803620B8983848B7A80F8BC
:101D60002630C97A80F8281009E00749C16107497F
:101D700001628284022180F8261080F8282080F8F1
:101D800027207047A80D0020911D00002042000070
:101D90002DE9F04F89B00446DDE9128980691D46BE
:101DA000164690F800C00F4603A904AA05AB0DF132
:101DB0001C0A1CF0200F08D0CDF800A0D0E901A02B
:101DC000D0F800C05046E0470AE08DF80CC04178DA
:101DD0008DF8101081788DF81410C0788DF81C00E3
:101DE000B4F90E004045BCBF09B0BDE8F08F9DF8C6
:101DF0001400B4F90A1040448842BCBF09B0BDE8E1
:101E0000F08F002E19BF4FF0040A4FF0010B09B0FC
:101E1000BDE8F08F310006AA08BF00200DD0206A6F
:101E2000002804BFCDF818B0387806D094F82730D1
:101E30000AEBC303C3583846984700281CBFB4F9BF
:101E40000C10A942DCBF09B0BDE8F08F02AAA3695B
:101E50000146184600F028F8010010D102AA2E21F0
:101E6000A06900F021F8010009D102AA2021A0698F
:101E700000F01AF8010008BF9DF810000CD09DF882
:101E80000C00434600F00100CDE900092A46204637
:101E900000F05DF89DF80800054406980744361ADE
:101EA000B8D109B0BDE8F08FF0B40378202B2CD066
:101EB00013F0400F4FF000062DD0C788002300F12B
:101EC000080C002F0ED903EB43045CF824508D421C
:101ED00005D80CEB840464682C448C4202D85B1C4B
:101EE000BB42F0D39F422FD003EB43030CEB8304A0
:101EF0005CF82330A468C91A204450F8211019B3A3
:101F0000084441781170F0BC70470346D3E90103DF
:101F10005B68F0BC184713F0800F1DBFD0E9024C7E
:101F200003794079D0F8C4C002BF041D20237E206D
:101F3000994228BF884207D3C81A34F81000604479
:101F400041781170F0BC70473046F0BC70472DE905
:101F5000FF4F83B08A460446B0F90C1005988142C1
:101F6000BCBF07B0BDE8F08F9AF801100844B4F97F
:101F700008108842BCBF07B0BDE8F08F02260025DC
:101F80009AF80000A846AB460228DCBF07B0BDE8BF
:101F9000F08F0698B4F90E1058448842C4BF07B0B9
:101FA000BDE8F08F109848B11AF80600002877D0E5
:101FB0004FEA101900F00F07761C33E09AF8001072
:101FC0004FF00009B14214DD1AF8060008F11802BA
:101FD0009040B0FA80F00828C8BFC8F108008144DA
:101FE0008044B8F1080F04D1761C4FF00008B142CC
:101FF000EADC0027B14215DD1AF8060008F11802E4
:102000009040C043B0FA80F00828C8BFC8F108006B
:1020100007448044B8F1080F04D1761C4FF0000843
:10202000B142E9DCB9F1000F49D00698B4F90E10BD
:102030005844814243DBB9F1010F77DD9AF8011072
:102040006A1C914272DD05EB09028A42D4BF4946FF
:10205000491B0191B4F90A1088421BDB1199C9B1DF
:102060000599B4F908E029447145A8BF8E46019A44
:102070001144B4F90C204B1E9342D8BF1A46636931
:10208000616800934B6802930346D1F814C071460F
:102090000298E0470198A9EB0009054461E0FFE7D9
:1020A0000AEB0600407810F0800F19BF00F07F00A7
:1020B000C7004FEAC009002706F10206B2D0002F80
:1020C0007DD0069800EB0B03B4F90E0098427ADB42
:1020D000012F52DD9AF80100691C88424DDDE91993
:1020E0008142D4BFB946A0EB0509B4F90A00834286
:1020F00017DB0598B4F9081028448842A8BF0146A8
:102100004844B4F90C20A0F1010C9445D8BF6246B4
:10211000D4F804C020690090DCF80400DCF814C096
:10212000E047A7EB09074D4441E0FFE70599B4F903
:10213000082029449142A1BFB4F90C208A42B4F985
:102140000A2090420ADB119A42B1D4F804C0024638
:102150006369DCF80400DCF80CC0E0476D1CA9F1F1
:1021600001099AF80100A84204BF00250BF1010BF8
:10217000B9F1000F7FF459AFA1E705984119B4F9FF
:1021800008008142A1BFB4F90C008842B4F90A00EA
:1021900083420ADBD4F804C0D4F810901A46DCF865
:1021A0000400DCF80CC04B46E0476D1C7F1E9AF81B
:1021B0000100A84204BF00250BF1010B00E002E082
:1021C000002F7FF47EAF9AF80000B0423FF7E1AEF7
:1021D00007B0BDE8F08F012111600078704710B59D
:1021E00082B0DDE9044CBCF1000F18BF4FF0010CC8
:1021F000CDE9004CD0F81CC0E04702B010BDD0F8CB
:10220000C82F22F0070222F480721143C0F8C81FC1
:102210007047084401686FF352011143016012F0E6
:10222000020F14BFB0218C21016214BF4FF4306142
:1022300040F60C0141627047425822F001024250C0
:102240007047425842F0010242507047084401680A
:10225000006911F0020F14BF4000401C7047084491
:10226000016811F0020F14BF5108511E016170473F
:10227000002A826814BF114322EA0101816070477D
:1022800021F03F031844036813F0020F18BF5208EF
:1022900003699A1A11F0010F14BFC261826170477D
:1022A0002DE9F003AF4D02462868AF4B1840A0F16E
:1022B0008053B3F5A02359D002F03809DFF8AC827F
:1022C000C2F38414B9F1100F25D0B9F1300F04BF57
:1022D00047F230504FF400130DD04FF038009043C8
:1022E00004BF4FF40040C30105D012F0380F1CBFEB
:1022F0000020034613D09E4F12F4605F4FF000069B
:1023000018BF00222CD057F8324044457DD307EB4C
:10231000C2025268E1E0002340461524EBE7A4F135
:102320000900122822D29348D5F87CC04FF04C7394
:1023300050F824002CF01C0C072CA8BF4CF0100CFB
:10234000C5F87CC02E6D4FF4002C16F4807FD2D1DE
:10235000BCF1010C0AD02E6D16F4807FF8D0CAE7CC
:1023600012F0380F18BFB9F1100F04D0BDE8F00318
:102370004FF000007047C2F30268DFF8FCC14FF075
:10238000000257F83290E14503D307EBC2025268CE
:1023900003E0521C062AF4D33246C5F8C020D5F813
:1023A000B020DFF8D8C102EA0C0242F00042C5F8C2
:1023B000B020DFF8CCC1A4F109024C1E5CF828C0A3
:1023C000A444BCFBF1FCD5F8B0101943C5F8B0101B
:1023D00008EBC80101EB41046A4902EB420201EB40
:1023E000C40101EB82046468C5F86441D5F8644116
:1023F0006FF0FF0808EB0C2C44EA0C0CC5F864C124
:1024000051F82210D5F8602100E061E002F40002EA
:102410001143C5F86011D5F86011D5F86021C1F3FA
:102420008921C2F30904D5F86421C2F3042202F120
:10243000010CD5F8642102F01F02521CB0FBF2F02F
:102440004A09C2F100084443424301EB481104EB3E
:102450005212484302EB9020B0FBFCF041080846C2
:10246000002257F832C0844503D307EBC200466808
:1024700002E0521C062AF4D3C5F8C060D5F860010A
:1024800010F4000F1DBFD5F8B00040F08040C5F833
:10249000B000D5F8600104BF40F40000C5F8600149
:1024A0004FF40040D5F8682112F0010F02D1401E10
:1024B0000028F7DC002808BF002148D0D5F8B0007C
:1024C000184340F0010040F01040C5F8B0003EE075
:1024D000521C062AFFF417AF3246C5F8C020D5F8C3
:1024E000602122F40002C5F86021D5F8B020DFF8A1
:1024F00098C002EA0C0242F00042C5F8B020002960
:1025000008BF4FF0000C0AD0B0FBF1FCBCF1000F8B
:1025100018BFACF1010C0CF10101B0FBF1F1084660
:10252000002257F83240844203D307EBC2004668CA
:1025300002E0521C062AF4D3C5F8C060D5F8B000FA
:1025400043EA8C22104340F00040C5F8B000D5F8B3
:10255000B00020F47000C5F8B000BDE8F0030846F4
:102560007047000000E00F400000FF700024F400FE
:10257000F0410000D43F000040787D0100FC0FE0F6
:10258000CC3F000040400000FF0300EFC0F30723F2
:102590000749C0B2194401F07043C1F3130143EA83
:1025A000411141EA800040F0007001220260704752
:1025B00000E60F40C0F307220849C0B2114401F001
:1025C0007042C1F3130142EA411141EA800040F038
:1025D00000700068002818BF0120704700EA0F4013
:1025E00070B504468069002804BF4FF0FF3070BD0D
:1025F000017811F0400F18BF82880AD111F0200F26
:1026000008BF002205D0D0E9012081681046884724
:10261000024694F826300020002B12D9A58C216A9E
:102620004FF0020C31F83060AE4207D10CEBC0061F
:102630008E5B964202D184F8270070BD401C834215
:10264000F0D8002084F82700401E70BD10B5002A85
:1026500006DA22F00042D21D22F00703102203E026
:10266000D21C22F003030C2213B19C188C4201D916
:10267000012010BD024401448360C0E90021C91A51
:10268000D018884202D810600246F9E70020106096
:1026900010BD000008480068C0010BD5074800685D
:1026A000C00707D0054880380068002802DA0449CE
:1026B0000120087070470000FCED00E0800E00E093
:1026C000D00D00204FF06042D36F002BFCD0036B85
:1026D000D367D36F002BFCD0C07840EA0120A2F86A
:1026E0007C0070474FF06041CA6F002AFCD081F82F
:1026F0007C0070470EB5802200B109B110460AE097
:1027000001780129FAD101A900F020F8042801D0AC
:10271000002000E01020DDE9011203B000BD70B51B
:102720000D46040003D012B92078012801D0802082
:1027300070BD204600F02AFB28B12946204600F053
:1027400030F8002070BD812070BD000010B5044637
:102750008089002824D0608904EB8000006908602B
:10276000606840B16078022805D10021204600F061
:102770005DFD00F04BFD04F10C0000BFD0E85F1FD1
:10278000491E8AB2C0E8512F0029F7D16089401C48
:1027900080B26081E189884201D1002060810420FB
:1027A00010BD10B500F042FDBDE8104000F02EBD98
:1027B000EFF3058109B182207047DFF808C000DF20
:1027C00070470000E1380000EFF3058008B1822077
:1027D0007047EFF31480C00703D0DFF80CC000DFB0
:1027E000704701F087B80000F538000088B0EFF3BB
:1027F000058010B1822008B07047EFF3148010F00C
:102800000301134806D001291BD0022911D0032946
:1028100019D113E008A981F309880078C0070BD00B
:102820005FF0020080F31488BFF34F8FBFF36F8F08
:1028300009E00078C00706D10320F3E70078C0075D
:1028400001D0FF20D7E7DFF80CC000DFD3E700009E
:10285000543D000065390000EFF3058212B10122FA
:1028600001F082B90022DFF808C000DF70470000E5
:10287000693B0000EFF305820AB100207047EFF3D7
:102880001482D20702D1044A52781AB1DFF80CC080
:1028900000DF704701F08AB8AC0D0020AD390000B0
:1028A000EFF3058212B1012201F08AB90022DFF8AC
:1028B00008C000DF70470000C13B000010B530B118
:1028C000006800F027F8102800D1202010BD8020DB
:1028D00010BD20B129B10068002200F027B8802087
:1028E0007047862070470000EFF305820AB1002090
:1028F0007047EFF31482D20702D1044A52781AB11A
:10290000DFF80CC000DF704701F071B8AC0D00209B
:10291000EF390000EFF305820AB1FFF7EBBEDFF8F5
:1029200008C000DF70470000133A0000EFF3058392
:102930000BB1FFF7F4BEDFF808C000DF70470000FE
:102940004D3A0000EFF305820AB100207047EFF323
:102950001482D20702D1044A52781AB1DFF80CC0AF
:1029600000DF704701F08EB8AC0D0020853A000002
:10297000DFF80CC000DFDFF80CC000DFFEE700006E
:10298000F13A00000D3B0000EFF3058008B1822012
:102990007047DFF808C000DF70470000453B0000CB
:1029A000DFF804C000DF70474F3B0000094C4FF0D8
:1029B000FF3529462068FFF7ADFF02460846102A7A
:1029C000F7D1FFF7EDFF0028F3D002460846904705
:1029D000EFE700009C0D0020074801684FF0E02061
:1029E000416100218161072101610448016841F0D2
:1029F0007F41016040177047503D000020ED00E02E
:102A0000704750E8001F31B10B6840E80032002ADF
:102A1000F7D108467047BFF32F8FFAE710B568B1BA
:102A200061B10B3121F00302016844680B1A1B1BD2
:102A3000934205D2084609680029F5D1002010BD4F
:102A4000210007D021180368C1E90032016001F1BB
:102A5000080010BD4260083010BD000070B50D4682
:102A6000002812D04FF6FF71084C884204D2226829
:102A70000146104600F008FC20684570044800F04C
:102A8000DDF8BDE8704000F0D1BC70BDB40D002091
:102A9000144200200F4810B50D4942680E480B68DB
:102AA0000068934204D00A60CB88421E1A448A8090
:102AB0008A8880B282420AD100200860054800F06E
:102AC000BDF80146BDE81040024800F001BC10BD51
:102AD000C80D002014420020C40D002070B5194D0F
:102AE000E86800282CD0A88A401EA882002621E091
:102AF000A06838B161684160606810B1A168816008
:102B00006660A6600F482146183800F0E1FBA08AF5
:102B1000A8826078042804D10B49E08A0988084417
:102B2000A08201206070E068E860E06808B105619B
:102B3000E6602661A88A002802D1EC68002CD7D173
:102B400070BD00002C420020C40D002070B50400B0
:102B50000FD00D4DA17801262868827891420CD9BA
:102B600000F0D2FB286846702046BDE8704000F0B7
:102B70005DBC064800F062F8F7E766702146BDE8E4
:102B80007040024800F0A4BBB40D002014420020A5
:102B90000321FFF763BF000010B50446008B084314
:102BA00020836278618B062A18D0052A19D1084241
:102BB00017D001EA0002628388432083204600F098
:102BC000DDFB01206070628B0821204600F0CEFB07
:102BD0002146BDE81040034800F07ABB31EA00020C
:102BE000EAD010BD14420020814202D342688A42DA
:102BF00001D80120704702680A60BFF35F8F50E878
:102C0000003F0A689A42F6D140E80012002AF2D149
:102C10000020704768B161B10022083902E0024625
:102C2000006830B18842FAD12AB1006810600020F3
:102C300070470120704700214160F8E70146406875
:102C400042684A600B780022022B05D0012B03D08A
:102C5000032B01D04260704743680BB1996042601A
:102C6000826070470649074B48681B6882789B78EA
:102C70009A4202D142684A607047002070470000C3
:102C800014420020B40D0020810700D000207047BE
:102C900070B5044600201546207001226270A170B4
:102CA00084F824106060A060E06020612062A0824F
:102CB000E0822083608384F82500E08C18B9054801
:102CC000FFF79FFEE06229462046BDE8704000F015
:102CD0001DB800004020002008B1082901D20120C1
:102CE00070470144091F002201600A6042601046DB
:102CF0007047000003480021016003490988C18032
:102D000070470000C80D00204C3D000070B5C28C1B
:102D10001C4D930802D12A88C2F38D03C26A02EBCC
:102D20008302540700D5121F4FF0807442E9021449
:102D300000242646B2F1400242F82460641C0E2CA6
:102D4000FAD3C4691462826201632968C90014D588
:102D5000112B12D94FF0FF31103B11EB53014FF003
:102D6000CC3305D042F8043C42F8083D491EF9D165
:102D7000C16A121F8A4200D91360C06A0249016009
:102D800070BD0000483D0000A52E5AE2C18980892F
:102D9000081A70470122027000224270827042605D
:102DA00002814281103982818908C1817047000007
:102DB0002DE9F041044640680E464FF0000804F14A
:102DC0000C05E8B36078012701283ED0022813D013
:102DD00003285CD10846FFF714FE050057D02046B3
:102DE000FFF72CFF0446294600F0BAFA6770204628
:102DF00000F0C4FA214621E02046FFF71FFF0646F7
:102E0000002100F0ADFA2189F06904EB810108612D
:102E1000D5E85F0F401C81B2C5E8501F0028F7D1EC
:102E20002089401C80B22081E189884201D1A4F828
:102E300008807770304600F0A1FA3146174800E06C
:102E40000CE0BDE8F04100F043BA2046FFF7F6FE83
:102E500004463246102100F089FAC7E7A089E189CB
:102E6000884216D2208904EB80000661D5E85F0F06
:102E7000401C81B2C5E8501F0028F7D12089401CB2
:102E800080B22081E189884201D1A4F80880BDE8A0
:102E9000F081BDE8F0410320FEF74FBC1442002052
:102EA00070B5164642680D4612B1417801290BD023
:102EB0008189C4890023A14224D19EB11D4C21687F
:102EC00092B100F005FA16E0FFF7B8FE04462A4674
:102ED000102100F04BFA204600F050FA2046FFF790
:102EE00035FE25E0012070BD416021684B602168FE
:102EF00088600221417020680821C5613046FFF7D3
:102F0000ADFDEFE7018900EB81010D6100F10C01DE
:102F1000D1E85F2F521C94B2C1E8524F002AF7D17A
:102F20000189491C89B20181C289914200D1038182
:102F3000002070BDB40D002070B504468089154690
:102F40000026C0B3608904EB8000006908606089D6
:102F5000401C80B26081E189884200D1668160684E
:102F600010B1607802280BD014F10C04D4E85F0F84
:102F7000401E81B2C4E8501F0028F7D1002070BD68
:102F80002046FFF75BFE0546002100F0E9F92189A4
:102F9000E86904EB810108612089401C80B220812E
:102FA000E189884200D12681284600F0E7F92846C9
:102FB000FFF7CCFDE2E7FFE73DB10B48626801682F
:102FC0002AB1204600F084F908E0012070BD61605C
:102FD00001684E6000688460012060700821284606
:102FE000FFF73CFDF1E70000B40D0020002814D0ED
:102FF000411C13D00C4A4FF6FE7190420CD800EBE6
:103000004002C2EBC0120948036803EBC202521E21
:10301000B2FBF3F0884204D9084670474FF6FF70C0
:10302000704780B27047000000093D00603D00001D
:10303000032101700021418041608160C1607047BF
:103040002DE9F0410446408820B1314DA1682A683D
:10305000914202D0FF20BDE8F081401E0004000C28
:10306000608053D12968086AA04209D1E0680862EB
:1030700008E0C268A24202D1E268C26002E01046E3
:103080000028F6D191F824000A6A06E053681BB1C3
:103090009B78834200D91846D268002AF6D18870FE
:1030A000DFF870806168012611B32046FFF7C6FD86
:1030B0000746002100F054F9384600F05FF96680B9
:1030C000A760386AE0603C622968D8F804008A7812
:1030D0008078824201D3384616E00E4800F0F8F8B6
:1030E00039460C4800F0F4F8286846707E700AE013
:1030F000D8F804108A782968824207D9054800F078
:10310000E7F8286846700020FFF720FD0020A2E7BE
:10311000B40D00201442002070B51C4D0E4604462C
:103120004188286861B1A268824210D1A1F57F4030
:10313000FF3803D0491C6180002070BDFF2070BDA6
:10314000A060016AE160046201206080F4E776B16A
:1031500091788078814203D29070A06800F0DEF808
:10316000606830B12046296800F0B2F808E001201C
:1031700070BD286860602968002048602868846005
:1031800009213046FFF76AFCF1E70000B40D00208A
:1031900070B51B48012102685170006800F0B4F856
:1031A000184D6C7818E000BF05EBC4014868027840
:1031B000EAB1012A20D000F00DF9E878641C8442BD
:1031C00000D100240F48801CD0E84F1F491EC9B20F
:1031D000C0E8421F002AF7D1A8780028E4D16C701B
:1031E0000948FFF72BFDBDE8704000F01FB90989C1
:1031F00089B2FFF7D1FCE0E78968FFF7D9FDDCE78A
:10320000B40D0020583D00201442002005480178EC
:1032100011B101214170704703494FF0805008609F
:1032200070470000BC0D002004ED00E0F0B4154D27
:10323000AB1CEE784FEA0507D3E84F2FB24202D11C
:10324000BFF32F8F11E0521CD4B2C3E8424F002AC3
:10325000F2D100BFD7E84F2F541CB44200D1002454
:10326000E4B2C7E8434F002BF4D1EB78934205D981
:1032700005EBC202C2E90101F0BC7047F0BC0220BC
:10328000FEF75BBA583D0020104A10B5D368ABB1C9
:1032900013469B8A03E08CB12246A48A2344D46857
:1032A0008B42F8D3C460D0600261C46804B120616D
:1032B000591A8182908A401A908210BD0024C460FD
:1032C000D060C91A02619182848210BD2C42002014
:1032D00030B502780023022A03D0012A01D0032A44
:1032E00000D101238C7800E01046426812B1957835
:1032F000A542F9D24A6041601BB102B19160886079
:1033000030BD0020FBE7000003494A68426000220C
:1033100082604860704700001442002010B5836846
:1033200004462BB9607801280ED1084B03E09B6856
:1033300018780028FBD0204600F034F82146BDE87C
:1033400010401846FFF7C4BF10BD00001442002013
:1033500090F82510806A09B16030704720307047BE
:1033600010B50C46FFF7F4FF046010BD70B51546AC
:103370000C46FFF7EDFFC0E9004570BD10B50169CF
:1033800000290ED0C268CA60C36800223BB18B8A94
:10339000848A23448B82C3681961C26000E08A82F8
:1033A000026110BD816839B142684A6041680029F4
:1033B00001D0806888607047054906E04A6882420B
:1033C00002D140684860704711460029F6D1704725
:1033D0001442002010B5416881B1FFF72FFC04466C
:1033E000FFF7CCFF0120607001462046FFF7B8FFD1
:1033F0002146BDE810400348FFF76ABF4188491CD9
:10340000418010BD1442002006480068D0E90A102F
:10341000814203D300680449884202D00120FEF7AC
:103420008CB97047B40D0020A52E5AE2074902223C
:1034300048604270064A1278002A05D006C98A42BE
:1034400002D0C078FFF74EB970470000B40D0020DD
:10345000D00D002070B5FFF71DF900200446204A6A
:10346000204902E042F82040401C0B889842F9D3E2
:103470001D48342201881D48FFF7E8F81C480088E1
:1034800080B240F000421B4801681B48FFF7DEF89D
:103490001A48082201881A480068FFF7D7F8194D22
:1034A000FF20194AE870EC8400212846FFF7F0FB62
:1034B000164804210170446015480170C46004611D
:1034C000848214481549056002206870124804700F
:1034D00044700978C170BDE87040FFF70BBC000074
:1034E000DC3D0020443D0000683D0000601E0020DF
:1034F000483D00006C3D000040200020903D000051
:10350000940D0020E04100203917000014420020F3
:103510002C420020B40D0020583D0020743D0000D6
:103520001B4810B5016841F47F01016000684FF04D
:103530007F4101EA00201649C0431439B0FA80F0F7
:103540000968C0F10800C1F30221814200D3481C80
:103550000F49091F0B686FF08072824063F31702F6
:103560000A60FFF739FA0B49002808600EDB00F10A
:10357000E021FF2281F8002400F01F020121914088
:103580004009800000F1E020C0F8001110BD0000EB
:1035900020ED00E0C00D00200C4810B502680121AC
:1035A00051700068FFF7B0FEFFF774FA0848016831
:1035B000491C0160FFF792FA00F032FB0548FFF763
:1035C0003DFBBDE81040FFF731BF0000B40D002007
:1035D000C40D002014420020002805D0810702D12C
:1035E0000178002900D000207047000030B50B4C56
:1035F0000023626805E095688D4204D8134612687E
:10360000491B002AF7D10260816012B19568691ADE
:1036100091600BB1186030BD606030BDAC0D002012
:103620002DE9F0411E46174680460D4611F0FF0F6A
:1036300000D14D1C1848FFF7E4F9041E16D0280AE3
:10364000E762E084E9B242462046E661FFF720FBEC
:1036500001251248124905E000EB850252F8042CBE
:1036600032B16D1C0A889542F6D90020BDE8F08180
:10367000002DFAD000EB850040F8044C0948E570B5
:10368000007818B101212046FFF71CF82046FFF70B
:103690005DFA2846EAE70000601E0020DC3D0020BD
:1036A000443D0000D00D00202DE9F05F584DDFF8BB
:1036B0005891DFF8588129684FF0010A002618B1A7
:1036C000CA78AB46824243D14E70FCF722FE29688D
:1036D0008862FFF799FE2868046A1FE06068C0B13D
:1036E0002046FFF7ABFA07460021FFF739FE3846C0
:1036F000FFF744FE87F801A039464648FFF7E8FD8A
:10370000E168A4F802A0A760386AE0603C620C4659
:1037100004E0E0686680A660E6600446002CDDD127
:103720002868C27808EB820141F8046CC16A3A4803
:10373000FFF75AFA2868C66299F8001011B1002103
:10374000FEF7C0FF35482968FFF74EFA2E6056E0B5
:103750003349098888420CD808EB800858F8045C83
:103760003DB12846FFF71EFE2846FFF707FE2C6AEC
:1037700022E0FF20BDE8F09F6068C0B12046FFF75F
:103780005DFA07460021FFF7EBFD3846FFF7F6FD2F
:1037900087F801A039461F48FFF79AFDE168A4F8B1
:1037A00002A0A760386AE0603C620C4604E0E06872
:1037B0006680A660E6600446002CDDD148F8046C03
:1037C0001548E96AFFF710FAEE6299F8000018B19F
:1037D00000212846FEF776FF29461048FFF704FA35
:1037E0000C48DBF8001040688B7882789A4209D93F
:1037F00081F801A00748DBF80010FFF769FD002001
:10380000FFF7A4F90020B5E7D00D0020DC3D002033
:10381000B40D00201442002040200020601E002033
:10382000443D000070B5FFF71DFA04000CD0074DB1
:1038300007482968FFF74CFD296801204870204699
:10384000BDE87040FFF7F2BD70BD0000B40D002070
:103850001442002070B51A4D80B11A4A1288904265
:103860001FD8194A02EB800050F8044CCCB1A1706B
:1038700084F824102868A04205D014E028688170DC
:10388000286880F82410114840688078884215D94B
:103890000E482968FFF71CFD2968012048700020A8
:1038A0000AE0FF2070BD2046FFF738FD6078012850
:1038B00004D10648FFF7C2F9FFF748F9002070BDB0
:1038C000B40D0020443D0000DC3D002014420020E7
:1038D00002480068002800D0C0787047B40D00206E
:1038E00010B5002804D0FFF781FBFFF751F9402005
:1038F00010BD000010B5134C207860B91248400785
:1039000005D1124801681048FFF7E6F908B1852093
:1039100010BDFFF79FFD0E49FF20096888702078D1
:1039200058B900210B4800F062F80B4908600021EB
:103930000A4800F0A7F80A4908600120207000201A
:10394000607010BDAC0D002050390020703D0000AB
:10395000B40D0020883D00009C0D0020783D000043
:10396000980D002070B50F4D687808B1002070BD2B
:103970000D4C206890F824100020FFF76BFF2068A2
:10398000C178FF2903D1816A203181F309886168F8
:1039900011B9606000202060FFF7C2FD012068704F
:1039A000E4E70000AC0D0020B40D002070B5040069
:1039B0000BD0216849B162683AB1A06828B1D0E95A
:1039C000005010B10DB12B780BB1002070BDD21C8E
:1039D00022F0030251430C31FEF738FE20888000AC
:1039E000103081B22846FFF7D5F9A06870BD10B538
:1039F000040005D0216819B1606808B102780AB1E5
:103A0000002010BD8900103189B2FFF7C3F960684A
:103A100010BD3EB504000D464FF0800012D0217855
:103A200001290FD12846FFF7E1FA0246204601A9F5
:103A3000FFF782FA012801D0102003E00DB14020E9
:103A400000E00020DDE9011203B030BD70B50E4684
:103A50000400154602D02078012801D0802070BDD6
:103A60001046FFF7C3FA024631462046FFF718FA20
:103A7000012801D0002070BD0DB1C12070BD812092
:103A800070BD000070B50E46040029D0206838B320
:103A9000606810F1030F23DB032821DCE16829B102
:103AA0001048FEF7BBFF05001AD000E00025606853
:103AB000E168001D40EA012133462A462068FFF7ED
:103AC000AFFD40B1084901EB8000084950F8040CF3
:103AD000826A516370BD1DB129460248FFF79AF80A
:103AE000002070BD50390020DC3D0020712900000D
:103AF00010B5FFF7EDFE002804D0034901EB80006C
:103B000050F8040C10BD0000DC3D002010B5FFF79C
:103B100063FD18B1C18C19B1C46A02E0802010BDE8
:103B20000024C078FFF7C0FDFF2806D01CB1214655
:103B30000348FFF76FF8002010BD812010BD000082
:103B40005039002010B5FFF76DFE002010BD10B5F4
:103B5000FFF79AF820B141690A680169104610BD63
:103B60000020014610BD000070B50D46002806D0AB
:103B7000D0E9004010B10CB112B10DB1002070BD00
:103B8000FEF73FFF060017D1B5B10C486168002968
:103B9000016803D02046FFF79BFB07E061600268E5
:103BA0000021516000688460032060702846FFF7A0
:103BB0001DFA0821FEF752FF304670BDB40D0020FB
:103BC00070B5164648B1D0E9004534B12DB128464C
:103BD000FFF70AF818B1862070BD802070BD6068BC
:103BE000E0B16078032819D136B129462046FFF7A5
:103BF0001DFBFFF70BFB11E02846FEF702FF050057
:103C00000CD02046FFF71AF804462946FFF7A8FB18
:103C10002046FFF7B3FB2046FEF798FF002070BD5B
:103C20002DE9F041134E7468002C1CD0A068124F8F
:103C3000401E4FF00108A06012E025462468746021
:103C4000002229463868FEF76AFD10B10420FDF70E
:103C500074FD6879012808D085F80480002C02D012
:103C6000A0680028E9D0BDE8F0812846E968FFF7A0
:103C7000BDFCF3E7AC0D00209C0D00204FF0407020
:103C8000E1EE100A7047000010000000D40D002083
:103C900010000000240E002010000000740E002010
:103CA00010000000C40E002010000000140F0020BF
:103CB00010000000A0000000000000200D06000021
:103CC0000000000001000000000000008D0B00005B
:103CD000000000000100000000000000A70C000030
:103CE000000000000100000000000000E30C0000E4
:103CF0000000000001000000000000001F0D000097
:103D0000000000000100000000000000AF0F0000F4
:103D1000000000000100000000000000280000007A
:103D200000000000800080006D120000771200008B
:103D3000DF1300000D140000491400009914000066
:103D4000AF1400000900000020030201050001007B
:103D50007F3E00000100000002000100520004004C
:103D6000E803000000000000E0010000101900005E
:103D70000804000010000000AD290000020000004F
:103D800001000000C800000004000000401E0020E8
:103D900000000000A5040000000000000100000079
:103DA000200300000040004010000000008005409B
:103DB000100000000050004011000000009005407D
:103DC00011000000006000401200000000A005404B
:103DD00012000000007000401300000000B0054019
:103DE00013000000004002401400000000C0054025
:103DF00014000000005002402E00000000D00540DA
:103E00002E000000006002402F00000000E005408E
:103E10002F000000007002403000000000F005405C
:103E20003000000000D003404600000000000640C3
:103E30004600000000100640470000000020064039
:103E400048000000003006407F00000000400640AF
:103E50008000000000500640840000000060064022
:103E60008C00000000400040100000000080054071
:103E700010000000005000401100000000900540BC
:103E800011000000006000401200000000A005408A
:103E900012000000007000401300000000B0054058
:103EA00013000000004002401400000000C0054064
:103EB00014000000005002402E00000000D0054019
:103EC0002E000000006002402F00000000E00540CE
:103ED0002F000000007002403000000000F005409C
:103EE0003000000000D00340430000000000064006
:103EF000430000000010064044000000002006407F
:103F00004500000000300640580000000040064018
:103F100059000000005006405C00000000600640B0
:103F200064000000007006406C0000000080064045
:103F30006D000000009006407F000000004000403F
:103F400000800540005000400090054000600040A7
:103F500000A005400070004000B005400040024055
:103F600000C005400050024000D005400060024003
:103F700000E005400070024000F0054000D0034022
:103F800000000640001006400010064000200640D9
:103F90000020064000300640003006400040064049
:103FA00000400640005006400050064000600640B9
:103FB0000060064000700640007006400080064029
:103FC0000080064000900640009006400068890985
:103FD000001C4E0E40420F0000201C0080841E007A
:103FE00000802500999E36000040380000093D0001
:103FF00000803E0000004B00404B4C0000204E0073
:10400000808D5B0000C05D000080700000127A00AF
:1040100000007D0080969800001BB7000080BB0068
:10402000C0E8CE00647ADA000024F4000000FA0050
:1040300080A81201002D310100366E0140787D010B
:104040004000000000000000000100003E000800E9
:104050000000000000010000A000000002000000BD
:1040600000010000345401000000000000010000C5
:104070002B70060000000000000100002800000076
:104080000000000000010000270001000000000007
:1040900000010000200000000000000000010000FE
:1040A0005000000002000000000100001AAC0000F7
:1040B000000000000001000017940900000000004B
:1040C000000100001698050000000000000100003B
:1040D0001400000000000000000100001380080030
:1040E0000000000000010000A00000000800000027
:1040F00000010000100000000000000000010000AE
:104100002800000002000000000100004000000044
:10411000040000000001000060000000000000003A
:10412000000100005D000C00000000000001000024
:104130005000000000000000000100004E000200DE
:10414000000000000001000041AC01000000000080
:10415000000100003C000000000000000001000021
:104160003A8009000000000000010000300000005B
:104170000000000000010000280000000000000016
:104180000001000027000100000000000001000005
:10419000236006000000000000010000216008000C
:1041A00000000000000100001E00000000000000F0
:1041B000000100001DC0040000000000000100001C
:1041C0005000000002000000000100001800000084
:1041D00000000000000100001400000000000000CA
:1041E0000001000060000000040000000001000069
:1041F0000024F40030003000005A62029100910067
:1042000000879303D200D20000B4C4041301130149
:1042100000E1F50554015401000E270795019501B1
:1042200000000E00D721000000000000D721000090
:1042300008060000000000000806208208000200B6
:1042400008065145000000000806514F94F945004A
:10425000080621EA1C2BC2000806C321084261801F
:104260000806624A10AA4680080660840000000022
:104270000806108410408100080640810410840064
:104280000806008A9CA88000080600823E20800064
:104290000806000000608400080600003E000000E0
:1042A0000806000000018600080600210842000000
:1042B00008067229AACA270008062182082087005A
:1042C0000806722084210F800806F842040A27009D
:1042D000080610C524F841000806FA0F020A270054
:1042E000080631083C8A27000806F8210841040026
:1042F000080672289C8A2700080672289E08460035
:1043000008060186006180000806018600608400BE
:1043100008061084204081000806000F80F8000085
:1043200008064081021084000806722084200200E2
:10433000080672209AAAA70008067228A2FA288006
:104340000806F228BC8A2F0008067228208227005F
:104350000806E248A28A4E000806FA083C820F804E
:104360000806FA083C820800080672282E8A278070
:1043700008068A28BE8A28800806708208208700DE
:10438000080638410412460008068A4A30A24880CE
:104390000806820820820F8008068B6AAA8A288075
:1043A00008068A2CAA9A288008067228A28A270062
:1043B0000806F228BC82080008067228A2AA4680D5
:1043C0000806F228BCA2488008067A081C082F00BC
:1043D0000806F8820820820008068A28A28A270098
:1043E00008068A28A289420008068A28AAAAA500E7
:1043F00008068A250852288008068A289420820008
:104400000806F82108420F800806710410410700D1
:104410000806020408102000080670410410470036
:1044200008062148800000000806000000000F80F8
:10443000080640810000000008060007027A278075
:104440000806820B328A2F00080600072082270008
:1044500008060826A68A27800806000722FA070011
:104460000806312438410400080601E8A278270034
:104470000806820B328A288008062006082087005A
:1044800008061003041246000806820928C28900A3
:1044900008066082082087000806000D2AAA2880E6
:1044A0000806000B328A288008060007228A2700A7
:1044B0000806000F22F2080008060006A6782080F1
:1044C0000806000B328208000806000720702F0043
:1044D0000806410E1041230008060008A28A6680E3
:1044E00008060008A289420008060008A2AAA50042
:1044F000080600089421488008060008A2782700D2
:104500000806000F84210F80080610821020810009
:1045100008062082082082000806408204208400C9
:10452000080642A10000000000060807000008007D
:10453000100018002000280030003800400048001B
:10454000500058006000680070007800800088000B
:1045500090009800A000A800B000B800C000C800FB
:10456000D000D800E000E800F000F80000010801E9
:1045700010011801200128013001380140014801D3
:1045800050015801600168017001780180018801C3
:1045900090019801A001A801B001B801C001C801B3
:1045A000D001D801E001E801F001F80100020802A1
:1045B000100218022002280230023802400248028B
:1045C000500258026002680270027802800288027B
:1045D00090029802A002A802B002B802C002C8026B
:1045E000D002D802E002E802F002000030420000EF
:1045F0001046000000000020D40D00003C02000026
:10460000BC4A0000D40D0020D436000098020000FF
:1046100013640F1B20B4040128321232145A0D0403
:10462000320A32095A030C290814CD5A6A148B3DF8
:10463000481470191932802A8B143132FF14ED9509
:104640006414E1694114FF901E23FFBF14FACE8762
:104650001AEB0414E6D8AD14B4824614DEC4B014C8
:1046600090807014998877000B14536C61746520E6
:10467000426C75650E174461726B20230809144D56
:1046800069646E696768743F051A4E617679395AB4
:10469000091677110F164D656469756D2009173776
:1046A00051080B12436F726E666C6F776572400E25
:1046B00018526F79616CF00C146F646738391E08FA
:1046C000081465657020536B79200E174C69676874
:1046D000741F091737993C0916200D185374656526
:1046E000B45978091524080B19536C617465204777
:1046F0007261793C091524144F4F2F239AFA237FB6
:10470000FF1498FB981490EE90148FBC8F1471B323
:104710003C24578B2E3264228014228B222432CDEB
:10472000321928111BFC7C08127F1C2FFFAD1412BC
:104730009A14238E6B1C2F6B552812800D17446121
:10474000726B6D11180E4D656469756D2053707232
:10475000696E6721AC65656EC8091417712C5061CC
:104760006C5409131C69E609161F49960B14656100
:10477000216996091420091737895A09171F091842
:1047800038410E17466F726573B50C1B4C696DF09E
:10479000031A6D650D184C61776E3C080A13436867
:1047A0006172747265757342393700081220596559
:1047B0006C6C6F77491809165C000B144F6C6976A6
:1047C0006520447261624E4461726B20230911407E
:1047D00039190119146BB7BD1420A5DA140B86B86A
:1047E0001413458B142D52A0148F8FBC143F85CD0C
:1047F000141E69D21460A4F414ADDEFF14B3DEF508
:104800001487B8DE4C8CB4D2700E134B68616B69A0
:10481000E80009156F6C64656E726F64393C0917A6
:1048200023D80C536164646C652042726F77C6397B
:104830001E061869656E6E610D16526F73793A2106
:10484000051A50657275000A1543686F636F6C61D5
:1048500074650D1853616E645B080B124E617661CE
:104860006A6F205768693F06195768656174000BC5
:10487000144275726C7920576F6F640B135461CBBF
:104880009114EE687B14DB709314E22B8A1282126F
:104890004B12D3129414CC329914D355BA1A800205
:1048A0001A8B021AFF0214EE82EE14D670DA14DDAF
:1048B000A0DD28094D656469756D2053EDCD20425A
:1048C0006C75B3591E0E10507572706CCD292F0F78
:1048D000122056696F6C65D20718496E6469676F5C
:1048E0000D184461726B3C391E07134F726368697F
:1048F0006459960915200915ADA95A0008124D6191
:1049000067656E74610F11467563687369195109A3
:1049100017AF510917AF4996041C6C756D23FFFF43
:1049200023D1CE14D0E04014CCD14814AAB2202315
:104930008B8B23808014D4FF7F14AACD6614A09E95
:104940005F051A4379616E39DE000A105475727181
:10495000756F697365091719510F164D656469758F
:104960006D3EE80F4C69676874205365612047729B
:10497000656583397809179B051A5465616C080AC7
:1049800013417175616D6172696E975996091525AC
:10499000080A13436164657420426C753C148515E4
:1049A000C7149314FF14B469FF149370DB14C1B6D9
:1049B000FF14CBC0FF148080F0145C5CCD6C3C1401
:1049C000DC601D56696F6C4ACC526564D8000915CD
:1049D0006565702050696E6B0C18486F741D110D61
:1049E0001650616C6558210D184C6967683E0918AE
:1049F00056893C0613436F72616C0F11496E6469EE
:104A0000616E735100081A4372696D736F6E2345AE
:104A1000FF1A8C0413BCFF0F164F72616E67654A54
:104A20004E4461726B2023011309171991328012D1
:104A30008B142222B2142A2AA51472B0FA147A9680
:104A4000E9147AA0FF14507FFF1B4763841112FF03
:104A50000D184D61726FAF39840915A021000B1438
:104A60004669726520427269636B0D1742726F77F7
:104A700059110D1D53616C6D780917230E174C6980
:104A80006768741F0619436F72616C0718546F6D65
:104A900061746F0917EB6123D7FF13FFFF148CE6D6
:104AA000F00C19476F6C2B071859656C6C6F770603
:0C4AB0003C4B68616B69042C0E2707006A
:0400000500000201F4
:00000001FF
