:020000040000FA
:10000000A82600206D05000075050000770500009A
:10001000790500007B0500007D0500000000000060
:100020000000000000000000000000002D030000A0
:100030008105000000000000E50300004904000005
:1000400087050000890500008B0500008D05000074
:100050008F05000091050000930500009505000044
:1000600097050000990500009B0500009D05000014
:100070009F050000A1050000A3050000A5050000E4
:10008000A7050000A9050000AB050000AD050000B4
:10009000AF050000B1050000B3050000B505000084
:1000A000B7050000B9050000BB050000BD05000054
:1000B000BF050000C1050000C3050000C505000024
:1000C000C7050000C9050000CB050000CD050000F4
:1000D000CF050000D1050000D3050000D5050000C4
:1000E000D7050000D9050000DB050000DD05000094
:1000F000DF050000E1050000E3050000E505000064
:10010000E7050000E9050000EB050000ED05000033
:10011000EF050000F1050000F3050000F505000003
:10012000F7050000F9050000FB050000FD050000D3
:10013000FF050000010600000306000005060000A0
:1001400007060000090600000B0600002506000057
:100150000000000000000000270600002906000043
:100160002B0600002D060000000000002F060000F6
:100170003106000033060000350600003706000097
:10018000390600003B0600003D0600003F06000067
:100190004106000043060000450600004706000037
:1001A000490600004B0600004D0600004F06000007
:1001B00051060000530600005506000057060000D7
:1001C000590600005B0600005D0600005F060000A7
:1001D0006106000063060000650600006706000077
:1001E000690600006B0600006D0600006F06000047
:1001F0007106000073060000750600007706000017
:1002000000F002F800F03CF80AA090E8000C8244EC
:100210008344AAF10107DA4501D100F031F8AFF2C9
:10022000090EBAE80F0013F0010F18BFFB1A43F0D4
:10023000010318475818000078180000103A24BF2E
:1002400078C878C1FAD8520724BF30C830C144BF3B
:1002500004680C607047000000230024002500267D
:10026000103A28BF78C1FBD8520728BF30C148BF19
:100270000B6070471FB501F0D5FB1FBD10B510BD59
:1002800000F034FA1146FFF7F5FF0FB400F00CF858
:100290000FBC00F0E3F800F017FA03B4FFF7EEFF2D
:1002A00003BC00F01DFA000004B000F0F9FA0448A5
:1002B000002100F049FB00F005FB00F005FA00000A
:1002C0007C1A000080F309887047EFF309807047BB
:1002D000684680F3098804480078C00714BF0220EC
:1002E000032080F3148870473C1A0000DFF818C020
:1002F000EFF305831B0618BF6047EFF31483DB079A
:1003000008BF604700DF7047EF090000DFF818C042
:10031000EFF305831B0618BF6047EFF31483DB0779
:1003200008BF604700DF7047CD0B0000EFF3098086
:10033000816911F8021CE1BB90E80F1010B5E0478D
:10034000BDE81040EFF3098C8CE80700214B93E8DF
:100350000600914208BF704741B91EF0100F16D138
:100360001D49086820F00100086010E01EF0100F21
:1003700006BF2CED108A0120002081F825002CE911
:10038000F00FC1F828C00CB400F0D2FF0CBC1A600A
:10039000D2F828C0BCE8F00F92F8250000280EBF64
:1003A0006FF0020E6FF0120EBCEC108A8CF309880D
:1003B000704710B5094A1268914209D8084C54F8A0
:1003C000214090E80F10A047EFF3098C8CE80F0054
:1003D00010BD00001C00002034EF00E038070000D2
:1003E0003807000010B500F067FEBDE81040154B5F
:1003F00093E80600914208BF7047EFF3098C1EF0A6
:10040000100F06BF2CED108A0120002081F8250076
:100410002CE9F00FC1F828C00CB400F089FF0CBC27
:100420001A60D2F828C0BCE8F00F92F82500002826
:100430000EBF6FF0020E6FF0120EBCEC108A8CF340
:10044000098870471C00002010B501F039F8CCE78E
:1004500010B500F0CBFA01F033F8C6E700F004F86D
:10046000622000F026F8FBE71848016841F001011E
:10047000016016481038016841F00101016014491B
:1004800003200860134A11211160124910390860D5
:10049000411F1148016340F20D3141621021816218
:1004A0006021C1620D4A0021116040F201310163F7
:1004B000704709498A699206FCD4C0B20860704747
:1004C00005498A699206FCD40860704718E60F4017
:1004D000208405402C85054000C00040C8CF004066
:1004E000FEE7FEE71A4810B5007848B101F06CF954
:1004F00030B1184900EB400001EB4010603810BDEE
:10050000154810BD154A10B511680346082900D3D7
:10051000FEE7134800EB0110491C1860116000F061
:100520001BFD012010BD0A490978002905D000688B
:100530004FF6FF71DFF82CC000DF704704490978DF
:10054000002903D00068DFF820C000DF70470000FA
:100550001500002000200020442400200C00002072
:100560006023002041100000690F000045488047CB
:1005700045480047FEE7FEE7FEE7FEE7FEE7FEE749
:10058000FEE7FEE7FEE7FEE7FEE7FEE7FEE7FEE743
:10059000FEE7FEE7FEE7FEE7FEE7FEE7FEE7FEE733
:1005A000FEE7FEE7FEE7FEE7FEE7FEE7FEE7FEE723
:1005B000FEE7FEE7FEE7FEE7FEE7FEE7FEE7FEE713
:1005C000FEE7FEE7FEE7FEE7FEE7FEE7FEE7FEE703
:1005D000FEE7FEE7FEE7FEE7FEE7FEE7FEE7FEE7F3
:1005E000FEE7FEE7FEE7FEE7FEE7FEE7FEE7FEE7E3
:1005F000FEE7FEE7FEE7FEE7FEE7FEE7FEE7FEE7D3
:10060000FEE7FEE7FEE7FEE7FEE7FEE7FEE7FEE7C2
:10061000FEE7FEE7FEE7FEE7FEE7FEE7FEE7FEE7B2
:10062000FEE7FEE7FEE7FEE7FEE7FEE7FEE7FEE7A2
:10063000FEE7FEE7FEE7FEE7FEE7FEE7FEE7FEE792
:10064000FEE7FEE7FEE7FEE7FEE7FEE7FEE7FEE782
:10065000FEE7FEE7FEE7FEE7FEE7FEE7FEE7FEE772
:10066000FEE7FEE7FEE7FEE7FEE7FEE7FEE7FEE762
:10067000FEE7FEE7FEE7FEE704480549034A054BAF
:1006800070470000A106000001020000A82400201D
:10069000A8260020A82400200749064808607047C3
:1006A0000648016841F4700101600349014808608F
:1006B00070470000000E27071000002088ED00E0C2
:1006C000004870474424002010B50446AFF3008072
:1006D0002046BDE81040FFF7E0BD70477047704707
:1006E00001491820ABBEFEE7260002007546FFF761
:1006F000E7FFAE4605006946534620F007008546F1
:1007000018B020B5FFF7B8FFBDE820404FF0000655
:100710004FF000074FF000084FF0000B21F00701E9
:10072000AC46ACE8C009ACE8C009ACE8C009ACE82C
:10073000C0098D46704770470000000010B5002AC0
:1007400006DA22F00042D21D22F00703102203E055
:10075000D21C22F003030C2213B19C188C4201D945
:10076000012010BD024401448360C0E90021C91A80
:10077000D018884202D810600246F9E700201060C5
:1007800010BD000008480068C0010BD5074800688C
:10079000C00707D0054880380068002802DA0449FD
:1007A0000120087070470000FCED00E0800E00E0C2
:1007B000380000204FF06042D36F002BFCD0036B59
:1007C000D367D36F002BFCD0C07840EA0120A2F899
:1007D0007C0070474FF06041CA6F002AFCD081F85E
:1007E0007C0070470EB5802200B109B110460AE0C6
:1007F00001780129FAD101A900F020F8042801D0DC
:10080000002000E01020DDE9011203B000BD70B54A
:100810000D46040003D012B92078012801D08020B1
:1008200070BD204600F092FA28B12946204600F01B
:1008300030F8002070BD812070BD000010B5044666
:100840008089002824D0608904EB8000006908605A
:10085000606840B16078022805D10021204600F090
:1008600079FC00F067FC04F10C0000BFD0E85F1FCA
:10087000491E8AB2C0E8512F0029F7D16089401C77
:1008800080B26081E189884201D10020608104202A
:1008900010BD10B500F05EFCBDE8104000F04ABC91
:1008A000EFF3058008B182207047EFF31480C00792
:1008B00003D0DFF80CC000DF704700F08DBF0000F0
:1008C000D917000088B0EFF3058010B1822008B07E
:1008D0007047EFF3148010F00301134806D001298C
:1008E0001BD0022911D0032919D113E008A981F3E3
:1008F00009880078C0070BD05FF0020080F31488ED
:10090000BFF34F8FBFF36F8F09E00078C00706D1A8
:100910000320F3E70078C00701D0FF20D7E7DFF816
:100920000CC000DFD3E700003C1A000049180000AB
:10093000EFF305820AB1FFF755BFDFF808C000DF0B
:1009400070470000B5180000EFF305820AB10020DF
:100950007047EFF31482D20702D1044A52781AB1D9
:10096000DFF80CC000DF704700F0C2BF14000020A9
:10097000F1180000DFF80CC000DFDFF80CC000DF6A
:10098000FEE700005D19000079190000DFF804C0DF
:1009900000DF7047B1190000094C4FF0FF352946C0
:1009A0002068FFF7C5FF02460846102AF7D1FFF777
:1009B000EDFF0028F3D0024608469047EFE700001D
:1009C00008000020074801684FF0E0204161002145
:1009D0008161072101610448016841F07F410160A4
:1009E00040177047381A000020ED00E0704750E8CB
:1009F000001F31B10B6840E80032002AF7D10846E9
:100A00007047BFF32F8FFAE710B568B161B10B31B2
:100A100021F00302016844680B1A1B1B934205D2A4
:100A2000084609680029F5D1002010BD210007D033
:100A300021180368C1E90032016001F1080010BD0E
:100A40004260083010BD000070B50D46002812D07D
:100A50004FF6FF71084C884204D2226801461046C6
:100A600000F0A6FB20684570044800F0D9F8BDE806
:100A7000704000F06FBC70BD1C00002014240020EA
:100A80000F4810B50D4942680E480B680068934244
:100A900004D00A60CB88421E1A448A808A8880B2B9
:100AA00082420AD100200860054800F0B9F80146EA
:100AB000BDE81040024800F09FBB10BD3000002090
:100AC000142400202C00002070B5194DE86800287F
:100AD0002CD0A88A401EA882002621E0A06838B148
:100AE00061684160606810B1A16881606660A6605D
:100AF0000F482146183800F07FFBA08AA882607852
:100B0000042804D10B49E08A09880844A082012006
:100B10006070E068E860E06808B10561E660266141
:100B2000A88A002802D1EC68002CD7D170BD000043
:100B30002C2400202C00002070B504000FD00D4D97
:100B4000A17801262868827891420CD900F070FBC8
:100B5000286846702046BDE8704000F0FBBB0648A0
:100B600000F05EF8F7E766702146BDE87040024885
:100B700000F042BB1C0000201424002010B50446E5
:100B8000008B084320836278618B062A18D0052ADF
:100B900019D1084217D001EA0002628388432083FA
:100BA000204600F07FFB01206070628B0821204608
:100BB00000F070FB2146BDE81040034800F01CBB6C
:100BC00031EA0002EAD010BD14240020814202D391
:100BD00042688A4201D80120704702680A60BFF368
:100BE0005F8F50E8003F0A689A42F6D140E8001251
:100BF000002AF2D10020704768B161B100220839A3
:100C000002E00246006830B18842FAD12AB1006899
:100C10001060002070470120704700214160F8E714
:100C20000146406842684A600B780022022B05D0DA
:100C3000012B03D0032B01D04260704743680BB1F6
:100C40009960426082607047810700D00020704741
:100C500070B5044600201546207001226270A17014
:100C600084F824106060A060E06020612062A082AF
:100C7000E0822083608384F82500E08C18B9054861
:100C8000FFF7B5FEE06229462046BDE8704000F05F
:100C90001DB800004002002008B1082901D201203F
:100CA00070470144091F002201600A60426010463B
:100CB0007047000003480021016003490988C18092
:100CC0007047000030000020341A000070B5C28C5C
:100CD0001C4D930802D12A88C2F38D03C26A02EB2D
:100CE0008302540700D5121F4FF0807442E90214AA
:100CF00000242646B2F1400242F82460641C0E2C07
:100D0000FAD3C4691462826201632968C90014D5E8
:100D1000112B12D94FF0FF31103B11EB53014FF063
:100D2000CC3305D042F8043C42F8083D491EF9D1C5
:100D3000C16A121F8A4200D91360C06A0249016069
:100D400070BD0000301A0000A52E5AE2C1898089CA
:100D5000081A7047012202700022427082704260BD
:100D600002814281103982818908C1817047000067
:100D70002DE9F041044640680E464FF0000804F1AA
:100D80000C05E8B36078012701283ED0022813D073
:100D900003285CD10846FFF72AFE050057D02046FD
:100DA000FFF73EFF0446294600F06EFA67702046C2
:100DB00000F078FA214621E02046FFF731FF064691
:100DC000002100F061FA2189F06904EB81010861DA
:100DD000D5E85F0F401C81B2C5E8501F0028F7D14D
:100DE0002089401C80B22081E189884201D1A4F889
:100DF00008807770304600F055FA3146174800E019
:100E00000CE0BDE8F04100F0F7B92046FFF708FF1D
:100E100004463246102100F03DFAC7E7A089E18977
:100E2000884216D2208904EB80000661D5E85F0F66
:100E3000401C81B2C5E8501F0028F7D12089401C12
:100E400080B22081E189884201D1A4F80880BDE800
:100E5000F081BDE8F0410320FFF743BB14240020DC
:100E600070B50446808915460026C0B3608904EB3E
:100E70008000006908606089401C80B26081E1895F
:100E8000884200D16681606810B1607802280BD07A
:100E900014F10C04D4E85F0F401E81B2C4E8501F67
:100EA0000028F7D1002070BD2046FFF7B9FE0546A7
:100EB000002100F0E9F92189E86904EB810108616A
:100EC0002089401C80B22081E189884200D126819E
:100ED000284600F0E7F92846FFF72EFEE2E7FFE795
:100EE0003DB10B48626801682AB1204600F084F9E0
:100EF00008E0012070BD616001684E600068846098
:100F00000120607008212846FFF79EFDF1E70000F0
:100F10001C000020002814D0411C13D00C4A4FF6AE
:100F2000FE7190420CD800EB4002C2EBC01209489F
:100F3000036803EBC202521EB2FBF3F0884204D9ED
:100F4000084670474FF6FF70704780B27047000048
:100F500000093D00481A0000032101700021418072
:100F600041608160C16070472DE9F04104464088CE
:100F700020B1314DA1682A68914202D0FF20BDE81E
:100F8000F081401E0004000C608053D12968086A7B
:100F9000A04209D1E068086208E0C268A24202D11A
:100FA000E268C26002E010460028F6D191F8240001
:100FB0000A6A06E053681BB19B78834200D9184641
:100FC000D268002AF6D18870DFF870806168012647
:100FD00011B32046FFF724FE0746002100F054F924
:100FE000384600F05FF96680A760386AE0603C62CE
:100FF0002968D8F804008A788078824201D338467C
:1010000016E00E4800F0F8F839460C4800F0F4F805
:10101000286846707E700AE0D8F804108A7829683B
:10102000824207D9054800F0E7F82868467000209A
:10103000FFF782FD0020A2E71C00002014240020FE
:1010400070B51C4D0E4604464188286861B1A268FF
:10105000824210D1A1F57F40FF3803D0491C618046
:10106000002070BDFF2070BDA060016AE1600462D5
:1010700001206080F4E776B191788078814203D2D4
:101080009070A06800F0DEF8606830B120462968F2
:1010900000F0B2F808E0012070BD2868606029689F
:1010A000002048602868846009213046FFF7CCFCA6
:1010B000F1E700001C00002070B51B480121026808
:1010C0005170006800F0B4F8184D6C7818E000BF5B
:1010D00005EBC40148680278EAB1012A20D000F08B
:1010E0000DF9E878641C844200D100240F48801C6C
:1010F000D0E84F1F491EC9B2C0E8421F002AF7D1ED
:10110000A8780028E4D16C700948FFF789FDBDE894
:10111000704000F01FB9098989B2FFF72FFDE0E7A1
:101120008968FFF725FEDCE71C000020581F00201F
:10113000142400200548017811B101214170704745
:1011400003494FF0805008607047000024000020E1
:1011500004ED00E0F0B4154DAB1CEE784FEA050746
:10116000D3E84F2FB24202D1BFF32F8F11E0521CB0
:10117000D4B2C3E8424F002AF2D100BFD7E84F2FC4
:10118000541CB44200D10024E4B2C7E8434F002B02
:10119000F4D1EB78934205D905EBC202C2E9010113
:1011A000F0BC7047F0BC0220FFF79BB9581F00202D
:1011B000104A10B5D368ABB113469B8A03E08CB1DB
:1011C0002246A48A2344D4688B42F8D3C460D060FA
:1011D0000261C46804B12061591A8182908A401A60
:1011E000908210BD0024C460D060C91A026191824F
:1011F000848210BD2C24002030B502780023022AFE
:1012000003D0012A01D0032A00D101238C7800E009
:101210001046426812B19578A542F9D24A60416001
:101220001BB102B19160886030BD0020FBE7000077
:1012300003494A68426000228260486070470000AB
:101240001424002010B5836804462BB96078012867
:101250000ED1084B03E09B6818780028FBD020468D
:1012600000F034F82146BDE810401846FFF7C4BF2F
:1012700010BD00001424002090F82510806A09B1E8
:10128000603070472030704710B50C46FFF7F4FF10
:10129000046010BD70B515460C46FFF7EDFFC0E9C0
:1012A000004570BD10B5016900290ED0C268CA6042
:1012B000C36800223BB18B8A848A23448B82C36833
:1012C0001961C26000E08A82026110BD816839B193
:1012D00042684A604168002901D080688860704790
:1012E000054906E04A68824202D14068486070477A
:1012F00011460029F6D170471424002010B541682A
:1013000081B1FFF78DFC0446FFF7CCFF0120607030
:1013100001462046FFF7B8FF2146BDE810400348CC
:10132000FFF76ABF4188491C418010BD142400208A
:1013300006480068D0E90A10814203D300680449D6
:10134000884202D00120FFF7CCB870471C00002073
:10135000A52E5AE20749022248604270064A1278D6
:10136000002A05D006C98A4202D0C078FFF732BAF7
:10137000704700001C0000203800002070B5FFF707
:1013800001FA00200446204A204902E042F82040A9
:10139000401C0B889842F9D31D48342201881D480F
:1013A000FFF7CCF91C48008880B240F000421B488F
:1013B00001681B48FFF7C2F91A48082201881A4839
:1013C0000068FFF7BBF9194DFF20194AE870EC845B
:1013D00000212846FFF73CFC1648042101704460B8
:1013E00015480170C4600461848214481549056081
:1013F000022068701248047044700978C170BDE81A
:101400007040FFF757BC0000DC1F00202E1A0000C0
:10141000501A00005C000020301A0000541A00002E
:1014200040020020781A000000000020E023002085
:10143000E1040000142400202C2400201C000020C3
:10144000581F00205C1A00001B4810B5016841F4C9
:101450007F01016000684FF07F4101EA00201649DA
:10146000C0431439B0FA80F00968C0F10800C1F334
:101470000221814200D3481C0F49091F0B686FF0FD
:101480008072824063F317020A60FFF79BFA0B49F0
:10149000002808600EDB00F1E021FF2281F8002423
:1014A00000F01F02012191404009800000F1E0207E
:1014B000C0F8001110BD000020ED00E02800002061
:1014C0000C4810B50268012151700068FFF7B0FEAA
:1014D000FFF7D6FA08480168491C0160FFF7F4FAE3
:1014E00000F072FA0548FFF79BFBBDE81040FFF7DC
:1014F00031BF00001C0000202C000020142400201C
:10150000002805D0810702D10178002900D00020F1
:101510007047000030B50B4C0023626805E0956809
:101520008D4204D813461268491B002AF7D1026085
:10153000816012B19568691A91600BB1186030BD75
:10154000606030BD140000202DE9F0411E461746B2
:1015500080460D4611F0FF0F00D14D1C1848FFF7D3
:1015600046FA041E16D0280AE762E084E9B2424631
:101570002046E661FFF76CFB01251248124905E0A1
:1015800000EB850252F8042C32B16D1C0A8895429A
:10159000F6D90020BDE8F081002DFAD000EB8500DF
:1015A00040F8044C0948E570007818B10121204644
:1015B000FFF700F92046FFF7BFFA2846EAE70000E8
:1015C0005C000020DC1F00202E1A000038000020E4
:1015D0002DE9F05F584DDFF85891DFF85881296800
:1015E0004FF0010A002618B1CA78AB46824243D1B7
:1015F0004E70FEF76AFE29688862FFF799FE286838
:10160000046A1FE06068C0B12046FFF709FB074687
:101610000021FFF739FE3846FFF744FE87F801A0A6
:1016200039464648FFF7E8FDE168A4F802A0A76044
:10163000386AE0603C620C4604E0E0686680A660C0
:10164000E6600446002CDDD12868C27808EB8201F0
:1016500041F8046CC16A3A48FFF7B8FA2868C662D4
:1016600099F8001011B10021FFF7A4F83548296856
:10167000FFF7ACFA2E6056E03349098888420CD84F
:1016800008EB800858F8045C3DB12846FFF71EFEC1
:101690002846FFF707FE2C6A22E0FF20BDE8F09FF6
:1016A0006068C0B12046FFF7BBFA07460021FFF78C
:1016B000EBFD3846FFF7F6FD87F801A039461F48D5
:1016C000FFF79AFDE168A4F802A0A760386AE0601D
:1016D0003C620C4604E0E0686680A660E660044672
:1016E000002CDDD148F8046C1548E96AFFF76EFA62
:1016F000EE6299F8000018B100212846FFF75AF869
:1017000029461048FFF762FA0C48DBF800104068E1
:101710008B7882789A4209D981F801A00748DBF8D2
:101720000010FFF769FD0020FFF706FA0020B5E77B
:1017300038000020DC1F00201C00002014240020A2
:10174000400200205C0000202E1A000070B51A4DE7
:1017500080B11A4A128890421FD8194A02EB8000C1
:1017600050F8044CCCB1A17084F824102868A04231
:1017700005D014E028688170286880F8241011488A
:1017800040688078884215D90E482968FFF734FDF3
:1017900029680120487000200AE0FF2070BD204623
:1017A000FFF750FD6078012804D10648FFF738FAAA
:1017B000FFF7C2F9002070BD1C0000202E1A0000A7
:1017C000DC1F00201424002002480068002800D0FC
:1017D000C07870471C00002010B5134C207860B909
:1017E0001248400705D1124801681048FFF754FA23
:1017F00008B1852010BDFFF7C1FD0E49FF20096823
:101800008870207858B900210B4800F041F80B4946
:10181000086000210A4800F06BF80A4908600120BE
:1018200020700020607010BD14000020501B0020AC
:10183000581A00001C000020701A00000800002048
:10184000601A00000400002070B50F4D687808B1E0
:10185000002070BD0D4C206890F824100020FFF788
:1018600075FF2068C178FF2903D1816A203181F397
:101870000988616811B9606000202060FFF7E4FD0D
:1018800001206870E4E70000140000201C00002024
:1018900010B5040005D0216819B1606808B102785C
:1018A0000AB1002010BD8900103189B2FFF752FA49
:1018B000606810BD3EB504000D464FF0800012D0A8
:1018C000217801290FD12846FFF724FB0246204644
:1018D00001A9FFF7C5FA012801D0102003E00DB1DE
:1018E000402000E00020DDE9011203B030BD00001F
:1018F00070B50E46040029D0206838B3606810F136
:10190000030F23DB032821DCE16829B11048FFF72E
:101910007BF805001AD000E000256068E168001D32
:1019200040EA012133462A462068FFF70DFE40B108
:10193000084901EB8000084950F8040C826A5163A1
:1019400070BD1DB129460248FFF756F9002070BD51
:10195000501B0020DC1F00207509000010B5FFF7A8
:1019600033FF002804D0034901EB800050F8040C39
:1019700010BD0000DC1F002010B5FFF7C1FD18B13D
:10198000C18C19B1C46A02E0802010BD0024C07867
:10199000FFF71EFEFF2806D01CB121460348FFF7C3
:1019A0002BF9002010BD812010BD0000501B00202D
:1019B00010B5FFF749F920B141690A68016910467D
:1019C00010BD0020014610BD2DE9F041134E746892
:1019D000002C1CD0A068124F401E4FF00108A060E0
:1019E00012E0254624687460002229463868FEF714
:1019F0000EFF10B10420FEF774FD6879012808D0AD
:101A000085F80480002C02D0A0680028E9D0BDE849
:101A1000F0812846E968FFF77DFDF3E71400002018
:101A2000080000204FF04070E1EE100A70470900F6
:101A300020030201050001007F3E000001000000BC
:101A40000200010052000400E80300000000000052
:101A5000E001000010190000080400001000000060
:101A6000990900000200000001000000C800000009
:101A7000040000003C000020000000005D040000A5
:101A8000000000000100000020030000AC1A00006C
:101A9000000000203C0000003C020000E81A0000AA
:101AA0003C0000206C2600005802000000000000EE
:101AB000000000000000000000000000000E2707EA
:101AC0000000000000000000000000000000000016
:101AD0000000000000000000000000000000000006
:081AE0000000000000000000FE
:0400000500000201F4
:00000001FF
